:020000040000FA
:100000000C9473000C949B000C949B000C949B002C
:100010000C949B000C949B000C949B000C94CF0CB4
:100020000C949B000C949B000C949B000C949B00E4
:100030000C949B000C949B000C949B000C949B00D4
:100040000C94850C0C949B000C94510D0C942B0D6E
:100050000C949B000C949B000C949B000C949B00B4
:100060000C94830D0C949B00005EBCE2613FDD8329
:10007000C29C7E20A3FD1F41009D23BE46DB65F888
:100080008C11AF32CA57E974000000002400270029
:100090002A0000000008000201000003040700001D
:1000A00000000000000000000000250028002B00D8
:1000B00002000000002300260029000404040404B8
:1000C0000404040202020202020303030303030105
:1000D00002040810204080010204081020010204DC
:1000E00008102000E70E11241FBECFEFD8E0DEBFBE
:1000F000CDBF12E0A0E0B1E0EEEFF9E202C0059062
:100100000D92AC37B107D9F724E0ACE7B2E001C0FB
:100110001D92A233B207E1F710E0C3E7D0E004C0BC
:100120002197FE010E94F714C237D107C9F70E9438
:10013000740F0C94FD140C940000833081F028F4AB
:10014000813099F08230A9F008958730A9F0883085
:10015000C9F08430B1F4809180008F7D03C080911C
:1001600080008F7780938000089584B58F7784BD59
:10017000089584B58F7DFBCF8091B0008F778093F9
:10018000B00008958091B0008F7DF9CF1F93CF9379
:10019000DF93282F30E0F901EE56FF4F8491F901EB
:1001A000E153FF4FD491F901E554FF4FC491CC23A3
:1001B000A9F0162F81110E949D00EC2FF0E0EE0FA8
:1001C000FF1FEA55FF4FA591B4918FB7F894EC91BA
:1001D000111108C0D095DE23DC938FBFDF91CF9142
:1001E0001F910895DE2BF8CFCF93DF9390E0FC01B1
:1001F000E153FF4F249185549F4FFC018491882344
:10020000D1F090E0880F991FFC01E857FF4FA591AE
:10021000B491FC01EA55FF4FC591D49161110EC014
:100220009FB7F8948C91E22FE0958E238C932881D0
:10023000E223E8839FBFDF91CF9108958FB7F894B1
:10024000EC91E22BEC938FBFF6CFCF92DF92EF923F
:10025000FF92CF936B0190910201891749F09F3F64
:1002600009F44EC0CF91FF90EF90DF90CF900895AA
:10027000E0EBF0E0C491C7FDF5CF61E00E94F4002F
:10028000CC2319F0C23009F0E3C0F12CE12C68E472
:1002900078EE81E090E0A70196010E94C414BA01B3
:1002A000A9014150510961097109CC2309F410C118
:1002B000C23009F09EC04F3F51056105710509F03C
:1002C0000CF4C4C064E274EF80E090E0A7019601F2
:1002D0000E94C414BA01A901415051096109710970
:1002E00095E08091B100887F892B8093B100C13067
:1002F00009F4C6C0C23009F4D8C0C111B3CF94C04C
:1003000080930201E0EBF0E0C491CF3F09F4AACF63
:10031000C13039F148F0C23009F445C0C7FDA2CF61
:1003200061E00E94F400AECF14BC15BC94B592609D
:1003300094BD95B5916095BD282F30E0F901E55445
:10034000FF4FE491F0E0EE0FFF1FEA55FF4F45919C
:100350005491F901E153FF4FE491E093FD02C0E0B5
:100360008CCF109280001092810090918100986053
:100370009093810090918100916090938100282F4B
:1003800030E0F901E554FF4FE491F0E0EE0FFF1F7C
:10039000EA55FF4F45915491F901E153FF4FE49124
:1003A000E093FC026ACF1092B0001092B1009091DD
:1003B000B00092609093B0009091B10091609093E2
:1003C000B100282F30E0F901E554FF4FE491F0E04F
:1003D000EE0FFF1FEA55FF4F459154915093FB02DA
:1003E0004093FA02F901E153FF4FE491E093F902DF
:1003F00044CF4F3F51056105710541F13CF162E188
:100400007AE780E090E0A70196010E94C414BA0147
:10041000A9014150510961097109C11162C094E0FB
:1004200085B5887F892B85BD47BD8FEF9FEFDC01A8
:100430008093060390930703A0930803B0930903E6
:1004400080916E00826080936E000CCF94E049CF63
:10045000960150E040E060E072E18AE790E00E949F
:10046000C414BA01A9014150510961097109C1308F
:1004700009F03DCF80918100887F81608093810069
:1004800050938900409388008FEF9FEFDC018093A9
:10049000020390930303A0930403B0930503809198
:1004A0006F00826080936F00DDCE4093B3008FEFCA
:1004B0009FEFDC018093FE029093FF02A093000364
:1004C000B093010380917000826080937000CACE67
:1004D00093E04F3F51056105710511F00CF08FCF8E
:1004E0009FCF96E0FECE3FB7F8948091F5029091B1
:1004F000F602A091F702B091F80226B5A89B05C0BC
:100500002F3F19F00196A11DB11D3FBFBA2FA92F92
:10051000982F8827BC01CD01620F711D811D911D8F
:1005200042E0660F771F881F991F4A95D1F70895FB
:100530008F929F92AF92BF92CF92DF92EF92FF92F3
:100540006B017C010E9473024B015C01C114D10458
:10055000E104F104B9F00E947302681979098A096B
:100560009B09683E73408105910580F321E0C21A22
:10057000D108E108F10888EE880E83E0981EA11CDE
:10058000B11CE4CFFF90EF90DF90CF90BF90AF9081
:100590009F908F9008950895089590910201891376
:1005A0000BC0E0EBF0E0E4919FEF90930201E130AB
:1005B00049F028F0E23061F060E00C94C60010923F
:1005C0006E00FACF90916F009D7F90936F00F4CFF3
:1005D000909170009D7F9093700091E09093B00097
:1005E0009091B100987F94609093B1001092B30005
:1005F000E3CFAF92BF92CF92DF92EF92FF920F9331
:100600001F93CF93DF936C017B018B01040F151FA8
:10061000EB015E01AE18BF08C017D10759F0699110
:10062000D601ED91FC910190F081E02DC601099574
:10063000892B79F7C501DF91CF911F910F91FF9021
:10064000EF90DF90CF90BF90AF900895FC01538D55
:10065000448D252F30E0842F90E0821B930B54179C
:1006600010F0CF96089501970895FC01918D828D29
:10067000981761F0A28DAE0FBF2FB11D5D968C91C2
:10068000928D9F5F9F73928F90E008958FEF9FEF01
:100690000895FC01918D828D981731F0828DE80FBD
:1006A000F11D858D90E008958FEF9FEF0895FC0177
:1006B000918D228D892F90E0805C9F4F821B910944
:1006C0008F73992708958AE593E00E94570321E0EC
:1006D000892B09F420E0822F089580E090E0892B97
:1006E00029F00E94630381110C9400000895FC011D
:1006F000A48DA80FB92FB11DA35ABF4F2C91848D83
:1007000090E001968F739927848FA689B7892C93DF
:10071000A089B1898C91837080648C93938D848D32
:10072000981306C00288F389E02D80818F7D808335
:100730000895EF92FF920F931F93CF93DF93EC01F5
:1007400081E0888F9B8D8C8D98131AC0E889F98978
:10075000808185FF15C09FB7F894EE89FF8960837B
:10076000E889F98980818370806480839FBF81E0FC
:1007700090E0DF91CF911F910F91FF90EF9008953E
:10078000F62E0B8D10E00F5F1F4F0F731127E02E19
:100790008C8D8E110CC00FB607FCFACFE889F98951
:1007A000808185FFF5CFCE010E947703F1CFEB8DDD
:1007B000EC0FFD2FF11DE35AFF4FF0829FB7F89425
:1007C0000B8FEA89FB8980818062CFCFCF93DF9343
:1007D000EC01888D8823B9F0AA89BB89E889F98959
:1007E0008C9185FD03C0808186FD0DC00FB607FC8E
:1007F000F7CF8C9185FFF2CF808185FFEDCFCE01C1
:100800000E947703E9CFDF91CF9108950895209159
:10081000BD02260F3327331F21323105ECF420911E
:100820003003FC0190E080E0243069F082E008951C
:10083000A091BD022191AC0143565D4FA40FB52F8D
:10084000B11D2C930196861798F38091BD02680F15
:100850006093BD0280E0089581E008951092300316
:1008600081E080932F0310920A0361E082E10E94ED
:10087000C60061E083E10E94C600E9EBF0E0808100
:100880008E7F808380818D7F808388E48093B80011
:1008900085E48093BC000895CF93DF9391E090931B
:1008A0009C028823B9F0C091B800D091BA00809121
:1008B000BC008A7B8093BC0060E082E10E94C6009D
:1008C00060E083E10E94C6000E942E04D093BA002B
:1008D000C093B800DF91CF910895CF92DF92EF924D
:1008E000FF920F931F93CF93DF93D091590381E031
:1008F000D13208F09CC0C09158030E9473026B0172
:100900007C018091300381116CC082E080933003C0
:1009100081E080932F038FEF80932E0310922D039D
:10092000D0932C03A8E3B3E0ECE0F3E080E0D8132D
:100930008DC010920B0380910B03CC0FC82BC0937A
:100940000B0380910A03813009F084C010920A03DE
:100950000E9473026B017C0180910B038093BB00AA
:100960008091320390913303A0913403B091350309
:10097000892B8A2B8B2BA1F00E94730200913203EA
:100980001091330320913403309135036C197D09A4
:100990008E099F09061717072807390708F442C070
:1009A0008091BC0083FDD8CF85EC8093BC000E9471
:1009B00073026B017C0180913003823009F44CC0DA
:1009C00080912E038F3F09F469C080912E038032FD
:1009D00009F466C080912E03803309F463C084E07B
:1009E00026C08091320390913303A0913403B091DB
:1009F0003503892B8A2B8B2B09F483CF0E9473023A
:100A00000091320310913303209134033091350368
:100A10006C197D098E099F090617170728073907E2
:100A200008F06FCF809131030E944C0485E0109252
:100A300037031092590310923603DF91CF911F9123
:100A40000F91FF90EF90DF90CF9008959D9191933B
:100A50008F5F6DCF85EEA9CF8091320390913303E4
:100A6000A0913403B0913503892B8A2B8B2B09F489
:100A7000A2CF0E94730200913203109133032091A0
:100A80003403309135036C197D098E099F090617CF
:100A900017072807390708F08ECFC4CF80E0C7CFEB
:100AA00082E0C5CF83E0C3CF0895E091E502809155
:100AB000E402E81730F4F0E0E458FD4F808190E064
:100AC00008958FEF9FEF08959091E5028091E402E1
:100AD0002FEF3FEF981748F4E92FF0E0E458FD4F6F
:100AE000208130E09F5F9093E502C90108958091D5
:100AF000E4029091E502891B990B0895CF92DF9251
:100B0000EF92FF920F931F93CF93DF937C01CB0162
:100B10008A0120913603222389F0EB016B01C40E78
:100B2000D51ECC15DD0569F06991D701ED91FC91D9
:100B30000190F081E02DC7010995F3CF642F0E9449
:100B40000704C801DF91CF911F910F91FF90EF90A3
:100B5000DF90CF900895CF93DF931F92CDB7DEB78C
:100B60006983209136032223F9F020915903203222
:100B700058F021E030E0FC013383228390E080E0F4
:100B80000F90DF91CF91089580913703E82FF0E027
:100B9000E85CFC4F998190838F5F8093370380934B
:100BA000590381E090E0ECCF61E0CE0101960E9414
:100BB0000704F7CFCF93C62F91E09093360392E6C8
:100BC000909358031092370310925903682F87EFC0
:100BD00093E00E94AB056C2F87EF93E00E94AB057A
:100BE000CF910C946D04CF93DF93EC0181E080935F
:100BF00036038EE380935803109237031092590303
:100C0000688187EF93E00E94AB05698187EF93E0ED
:100C10000E94AB05DF91CF910C946D04CF93DF93CD
:100C200000D0CDB7DEB790E899838A83CE010196D4
:100C30000E94F3050F900F90DF91CF910895CF930D
:100C4000DF9300D0CDB7DEB780E489836A83CE011D
:100C500001960E94F30581E090E00F900F90DF91E4
:100C6000CF91089590E080E00895DC0180E061502C
:100C700090F09D919827E92FEF70F0E0E859FF4F31
:100C80002491E92FE295EF70F0E0E858FF4FE491EE
:100C9000822F8E27ECCF0895DC012C911196ED91D7
:100CA000FC91F8948181822B81839281322F30953F
:100CB0009323928387E090E00197F1F7818183236A
:100CC000818383E290E00197F1F790817894EFECD3
:100CD000F0E03197F1F7922381E009F480E0089584
:100CE000FC0190810180F281E02D292F209560FF89
:100CF00014C0F8948281822382838181892B81832D
:100D0000A3E2B0E01197F1F78281982B9283789457
:100D100087ED90E00197F1F70895F894828182239E
:100D200082838181892B8183AFEFB0E01197F1F746
:100D30008281982B928378948FE090E0EBCFDF92C2
:100D4000EF92FF920F931F93CF93DF93EC01D62E78
:100D5000E42E08E010E0FF24F39461E08D2D8F2154
:100D600009F460E0CE010E947006FF0C01501109E9
:100D7000A1F7E11010C0F894E981FA81918188818E
:100D8000809589238183E981FA8192818881809588
:100D9000892382837894DF91CF911F910F91FF90E7
:100DA000EF90DF900895EF92FF920F931F93CF93F0
:100DB000DF938C017B0140E065E50E949F06E7011F
:100DC00088E0E80EF11C699140E0C8010E949F068E
:100DD000CE15DF05C1F7DF91CF911F910F91FF90E5
:100DE000EF900895FC0190810180F281E02DF8944C
:100DF0008181292F20958223818378943DE743E0E8
:100E000050E0315029F1DA011197F1F780818923FF
:100E1000C1F3F8948281822382838181892B81832B
:100E20007894ABE7B7E01197F1F7F89481818223CA
:100E30008183A3E1B1E01197F1F78081982381E0EC
:100E400009F080E07894E3E6F6E03197F1F7089551
:100E500080E008956F927F928F929F92AF92BF929F
:100E6000CF92DF92EF92FF920F931F93CF93DF9376
:100E70008C01EB0180911604909117040E94F206F8
:100E8000882309F43FC0B80180911604909117049B
:100E90000E94D30640E06EEB8091160490911704F7
:100EA0000E949F067E016E0189E0C80ED11C8E0152
:100EB000A0901604B090170488E0882E912C712C15
:100EC00066246394C5010E944C0681117628660C45
:100ED000E1E08E1A9108B1F7F80171928F01CE16F8
:100EE000DF0631F780911604909117040E94F206F4
:100EF000813041F4F70181917F01811105C0E01734
:100F0000F107C1F790E008C068E0CE010E94350605
:100F100091E028852813F6CF892FDF91CF911F917B
:100F20000F91FF90EF90DF90CF90BF90AF909F9088
:100F30008F907F906F90089568EB71E087E00E943A
:100F4000250166E970E080E090E00E94980287E069
:100F50000E94CD0266E970E080E090E00E94980275
:100F600068EB71E087E00E94250166E970E080E0AF
:100F700090E00E94980287E00C94CD02BF92CF923D
:100F8000DF92EF92FF920F931F93CF93DF93EC01C9
:100F9000B62EC72E8D85811105C0CE010E94F206A6
:100FA00081110EC01B861D861C8680E0DF91CF91CB
:100FB0001F910F91FF90EF90DF90CF90BF90089519
:100FC00040E060EFCE010E949F0601E0E12CD12CB1
:100FD00011E0CE010E944C06F82ECE010E944C0674
:100FE00091E0F91218C0813099F51134D8F2DB86FE
:100FF000D11002C081E08D878B81882399F22396DE
:10100000EB2DFC2DCF01089629912193E817F907C4
:10101000D9F781E0CBCFEE2DF0E0F8120FC08B8531
:101020001817A0F4DE01AE0FBF1F13968C9180231A
:1010300079F4F12C193008F41C87D12EEC0FFD1F28
:101040008381902F9095892383830AC08113F1CFE8
:10105000FE01EE0DF11D8381802B8383FF24F39429
:101060006F2DCE010E9470061F5F000F11F4E394F4
:1010700001E087E08E1508F0ACCFB7CFCF92DF92BA
:10108000EF92FF920F931F93CF93DF93CDB7DEB70D
:1010900061970FB6F894DEBF0FBECDBF80911404E8
:1010A000811113C060E070E08EEF92EC61960FB694
:1010B000F894DEBF0FBECDBFDF91CF911F910F918E
:1010C000FF90EF90DF90CF900895E0911604F0919B
:1010D00017041386158614861286118610861782C9
:1010E0001682158214821382BE01665F7F4F809143
:1010F0001604909117040E94BE07882399F267E0B6
:10110000CE010A960E94350699898913CBCFBE017C
:101110006F5F7F4FCE010A960E942A07882311F243
:101120009A81C12CD12C760197FF06C0C12CD12CFD
:10113000F8EFEF2EFF24FA944A8589814B33E1F5CD
:101140002D8127FF39C080FDADCF082F10E030E0A2
:1011500020E073E0000F111F221F331F7A95D1F793
:10116000007E177022273327892F90E0B0E0A0E09F
:10117000EBE0880F991FAA1FBB1FEA95D1F7802BC0
:10118000912BA22BB32B8C019D010C291D292E29FB
:101190003F29013854EE15075FEF250735070CF49A
:1011A00081CFC901B8010E94671320E030E040E020
:1011B0005CE30E941C147ACF092F10E0102F002747
:1011C000110F110F110F28E0829FB0011124062B7F
:1011D000172B012E000C220B330B0C291D292E2955
:1011E0003F29483269F4803531F4953091F68F818A
:1011F0008C3079F657CF8F3F61F6973051F652CF4A
:10120000403139F66885662321F270E08F81AB01A9
:10121000481B5109CA019695982F8827979587955D
:101220000E948E14CB01770FAA0BBB0B53E0000F6B
:10123000111F221F331F5A95D1F7007827703327CB
:101240000052110921093109800F911FA21FB31FFC
:1012500097018601082B192B2A2B3B2B9ACF0F9332
:101260001F9390E0FC01E153FF4F6491FC01E554B2
:10127000FF4FE491F0E0EE0FFF1FEF54FF4F859119
:10128000949100E412E42FE030E0462F0E94A20E79
:10129000611571058105910529F06F5F7F4F8F4FB3
:1012A0009F4F9F701F910F910895FB0101900020A7
:1012B000E9F73197AF01461B570BDC01ED91FC912B
:1012C0000280F381E02D09948F929F92AF92BF929A
:1012D000EF92FF920F931F93CF93DF93CDB7DEB7BB
:1012E000A1970FB6F894DEBF0FBECDBF7C01FA0107
:1012F000CB0119A2223008F42AE08E010F5D1F4FA6
:10130000822E912CB12CA12CBF01A50194010E9429
:10131000A214F901CA016A300CF5605DD8016E9320
:101320008D01232B242B252B79F790E080E010975B
:1013300021F0BD01C7010E945509A1960FB6F8948E
:10134000DEBF0FBECDBFDF91CF911F910F91FF90F8
:10135000EF90BF90AF909F908F900895695CDECF23
:10136000CF92DF92EF92FF920F931F93CF93DF9371
:1013700077FF21C06A017B01EC01E881F9810190CE
:10138000F081E02D6DE209958C0144275527BA01C3
:101390004C195D096E097F092AE0CE010E9464099B
:1013A000800F911FDF91CF911F910F91FF90EF90D0
:1013B000DF90CF9008952AE0DF91CF911F910F9198
:1013C000FF90EF90DF90CF900C946409CF93DF9360
:1013D000BC018AE593E00E945509EC0169E371E0E4
:1013E0008AE593E00E9455098C0F9D1FDF91CF91F4
:1013F00008950C9455090F931F93CF93DF9300D05A
:10140000CDB7DEB700E8098310EC1A83CE01019650
:101410000E94F3056CE371E083E094E00E94F90917
:1014200009831A83CE0101960E94F3050F900F9055
:10143000DF91CF911F910F9108958091EA029091D1
:10144000EB028130910511F580910001909101012D
:1014500083309105A4F461E082E00E94C6008DE42F
:1014600091E00E94E6096DE471E083E094E00E945F
:10147000F9096AE070E080E090E00C94980203972C
:10148000A9F41092EB021092EA020895029771F407
:1014900061E084E00E94C6008CE591E00E94E609CC
:1014A0006CE571E083E094E00C94F909089560E044
:1014B00089E00E94C60083E090E00197F1F761E0C7
:1014C00089E00E94C60083E290E00197F1F760E0B6
:1014D00089E00E94C6008AE00E942F090E946713DB
:1014E00026E933E44BE05DE30E941C1420E030E089
:1014F00040E05FE30E941C140E942F136093E602F9
:101500007093E7028093E8029093E90264507109B6
:1015100081099109683271408105910520F08BE6BF
:1015200091E00E94E60962EA71E08AE593E00E9498
:10153000F9094091E6025091E7026091E80270914A
:10154000E9028AE593E00E94B00985EB91E00E94F0
:10155000E60960E08BE00E94C60083E090E001971E
:10156000F1F761E08BE00E94C60083E290E0019712
:10157000F1F760E08BE00E94C6008CE00E942F092A
:101580000E94671326E933E44BE05DE30E941C14DC
:1015900020E030E040E05FE30E941C140E942F1323
:1015A0006093EC027093ED028093EE029093EF0251
:1015B0006450710981099109683271408105910572
:1015C00050F08BE691E00E94E60968EE73E080E05F
:1015D00090E00C94980262EA71E08AE593E00E9440
:1015E000F9094091EC025091ED026091EE02709188
:1015F000EF028AE593E00E94B00985EB91E0E3CF2A
:101600008F929F92AF92BF92CF92DF92EF92FF9212
:10161000CF93DF9300D0CDB7DEB7809116049091C1
:1016200017040E94F20640E06CEC80911604909141
:1016300017040E949F0640910D0464E480911604F3
:10164000909117040E949F068FB7F894C090F10202
:10165000D090F202E090F302F090F4028FBF8091FC
:101660001104882329F180911204882309F46EC0A3
:1016700080910D0481116AC0809116049091170425
:101680000E944C068130A1F02FB7F8948091F102AE
:101690009091F202A091F302B091F4022FBF8C1945
:1016A0009D09AE09BF098E3E9240A105B10520F308
:1016B0000E943E086B017C0180E8898389E88A8367
:1016C000CE0101960E94F30568EB71E083E094E09F
:1016D0000E94F909A7019601C701B6010E94891469
:1016E0006BEB71E081111BC046015701E894B7F81C
:1016F0002FEF3FEF4FE75FE7C501B4010E94891468
:1017000081114DC02FEF3FEF4FE75FE7C501B401F7
:101710000E942A1318160CF042C06FEB71E083E0B0
:1017200094E00E94550961E070E080E090E00E9442
:1017300098020F900F90DF91CF91FF90EF90DF9084
:10174000CF90BF90AF909F908F900895E09110043C
:10175000E9508EEE92E0E33038F4F0E0EE0FFF1F38
:10176000ED5FFE4F808191816C01F12CE12C809125
:101770000E04882329F060E080910F040E94C600C7
:10178000C701B6010E94980280910E04882309F4D3
:101790008FCF61E080910F040E94C60089CF2FEFA8
:1017A0003FEF4FE75FE4C701B6010E941714181618
:1017B0001CF463EC71E0B3CF2FEF3FEF4FE75FEC2A
:1017C000C701B6010E942A1387FDF3CF20E030E065
:1017D000A901C701B6010E942A1387FF09C06DE263
:1017E00083E094E00E941F06F7FAF094F7F8F09473
:1017F0002AE037ED43EA5BE3C701B6010E94BE125F
:101800004B015C010E9436136B017C010E94651341
:101810009B01AC01C501B4010E94BD124B015C01EA
:101820002AE0B701A60183E094E00E9464096EE219
:1018300083E094E00E941F0620E030E040E251E4A3
:10184000C501B4010E941C144B015C010E943613B7
:101850006B01F12CE12C2AE0B701A60183E094E0B2
:101860000E946409C701B6010E9465139B01AC0187
:10187000C501B4010E94BD1220E030E040E251E415
:101880000E941C140E943613AB0170E060E02AE055
:1018900083E094E00E94640946CF85ED8093BC000C
:1018A0008091320390913303A0913403B0913503BA
:1018B0000796A11DB11D23E0B695A795979587952D
:1018C0002A95D1F72091BC0024FD03C0109230036B
:1018D0000895409132035091330360913403709125
:1018E0003503452B462B472B69F30097A105B1051E
:1018F00041F02AE22A95F1F700C00197A109B10948
:10190000E1CF809131030C944C041F920F920FB6DB
:101910000F9211242F933F938F939F93AF93BF9375
:101920008091F1029091F202A091F302B091F40241
:101930003091F00223E0230F2D3758F50196A11DB9
:10194000B11D2093F0028093F1029093F202A093D4
:10195000F302B093F4028091F5029091F602A09107
:10196000F702B091F8020196A11DB11D8093F50216
:101970009093F602A093F702B093F802BF91AF9153
:101980009F918F913F912F910F900FBE0F901F90BD
:10199000189526E8230F0296A11DB11DD2CF1F92E4
:1019A0000F920FB60F9211242F933F934F935F9393
:1019B0006F937F938F939F93AF93BF93EF93FF9317
:1019C0008091FE029091FF02A0910003B09101036B
:1019D000892B8A2B8B2BD1F19091F902E091FA029D
:1019E000F091FB028081892780838091FE02909193
:1019F000FF02A0910003B0910103181619061A0600
:101A00001B069CF48091FE029091FF02A0910003BE
:101A1000B09101030197A109B1098093FE0290934F
:101A2000FF02A0930003B0930103FF91EF91BF91D8
:101A3000AF919F918F917F916F915F914F913F9166
:101A40002F910F900FBE0F901F901895809102015B
:101A50000E94CD02EACF1F920F920FB60F9211246F
:101A60002F933F934F935F936F937F938F939F93A6
:101A7000AF93BF93EF93FF938AE593E00E947703C0
:101A8000FF91EF91BF91AF919F918F917F916F9156
:101A90005F914F913F912F910F900FBE0F901F902C
:101AA00018951F920F920FB60F9211242F938F93B8
:101AB0009F93EF93FF93E0916A03F0916B03808112
:101AC000E0917003F091710382FD1BC090818091C1
:101AD00073038F5F8F7320917403821741F0E0913D
:101AE0007303F0E0E65AFC4F958F80937303FF91E8
:101AF000EF919F918F912F910F900FBE0F901F909C
:101B000018958081F4CF1F920F920FB60F92112477
:101B10002F933F934F935F936F937F938F939F93F5
:101B2000AF93BF93EF93FF938091B900887F803686
:101B300009F44AC0F0F5883209F4A7C018F58031DD
:101B400009F49BC0B8F4882309F4F9C0883009F47B
:101B500094C0FF91EF91BF91AF919F918F917F9131
:101B60006F915F914F913F912F910F900FBE0F900A
:101B70001F901895883109F488C0803251F78093FE
:101B80002E0314C0803409F49DC040F48033B9F3AF
:101B90008833F9F680932E0385ECB0C0803509F4C4
:101BA00085C0883509F496C0883499F60E944D0C9A
:101BB000D0CF883909F48CC038F5883729F050F433
:101BC000883611F0803729F683E080933003109235
:101BD000DF0257C0883809F47BC0803919F080389B
:101BE00009F0B7CF8091DF02803208F071C0E09138
:101BF000DF0281E08E0F8093DF028091BB00F0E076
:101C0000E154FD4F80833DC0803B39F0E0F4803AE1
:101C100009F479C0883A09F09CCF84E080933003BE
:101C20001092BE021092BD02E091E202F091E30236
:101C300009958091BD0281110FC081E08093BD02A2
:101C400010929D0209C0803C09F4A6CF883C09F49B
:101C5000A3CF883B09F07DCFE091BE0281E08E0FDB
:101C60008093BE02F0E0E356FD4F80818093BB007D
:101C70009091BE028091BD0229C080910B03809398
:101C8000BB0085EC8093BC0064CF90912D038091C4
:101C90002C03981758F5E0912D0381E08E0F809367
:101CA0002D03F0E0E45FFC4F8081E9CFE0912D034C
:101CB00081E08E0F80932D038091BB00F0E0E45F04
:101CC000FC4F808390912D0380912C039817C8F2CC
:101CD00085E8D8CFE0912D0381E08E0F80932D030E
:101CE0008091BB00F0E0E45FFC4F808380912F0384
:101CF00081115CCF81E080930A0384EA8093BC0069
:101D00001092300326CF85EC8093BC0010923003F4
:101D10008091DF02803230F4E091DF02F0E0E154A4
:101D2000FD4F10826091DF0270E0E091E002F091DF
:101D3000E1028FEB92E009951092DF020ACF109238
:101D40002E0334CFCF92DF92EF92FF920F931F9327
:101D5000E82FF92F05C0015011092109310961F15E
:101D6000908196239417B9F305C0015011092109F8
:101D7000310911F1908196239413F7CFC12CD12C06
:101D8000E12CF12C0AC08FEFC81AD80AE80AF80A29
:101D90000C151D052E053F0579F0808186238417DB
:101DA00091F36C2D7D2D8E2D9F2D1F910F91FF9006
:101DB000EF90DF90CF90089560E070E080E090E0D9
:101DC0001F910F91FF90EF90DF90CF900895EAE57B
:101DD000F3E01382128288EE93E0A0E0B0E0848307
:101DE0009583A683B7832DE031E03183208325ECF2
:101DF00030E03587248724EC30E03787268720ECD5
:101E000030E0318B208B21EC30E0338B228B22ECC5
:101E100030E0358B248B26EC30E0378B268B118E0F
:101E2000128E138E148EE7EFF3E0138212828483F6
:101E30009583A683B7838FE191E09183808360E0EF
:101E400087E00E94F400E6EDF0E0E491A4E2B4E063
:101E5000EC93E2ECF0E0E491F0E0EE0FFF1FEF54C2
:101E6000FF4F8591949112969C938E9311971B9698
:101E70001C921B971D961C921D971C961C921C97DA
:101E80001A961C921A9719961C92199718961C92DA
:101E9000189717961C92179716961C9216971596D8
:101EA0001C92159714961C92149713961C921397D4
:101EB000EDE0F4E017821086108289E0838381E0F0
:101EC0008483858386831182168A158A8FEF838B9C
:101ED000148AB287A187E3E0F4E01382128281E3DF
:101EE00091E0918380830895CF93DF93CDB7DEB7E0
:101EF00062970FB6F894DEBF0FBECDBF789484B55D
:101F0000826084BD84B5816084BD85B5826085BDF5
:101F100085B5816085BD80916E00816080936E0083
:101F20001092810080918100826080938100809175
:101F30008100816080938100809180008160809326
:101F400080008091B10084608093B1008091B000E6
:101F500081608093B00080917A00846080937A00E1
:101F600080917A00826080937A0080917A0081600B
:101F700080937A0080917A00806880937A00109232
:101F8000C1001092E5021092E40210923703109201
:101F900059030E942E048BEC92E09093E30280930D
:101FA000E2028CEC92E09093E1028093E0020E94C6
:101FB0002E0480910704982F98609093070412E0F4
:101FC00010930B0410920C04EBE3FDE03197F1F752
:101FD00088620E940E068BE496E40197F1F78091E7
:101FE000070480620E940E0683E592E00197F1F7F4
:101FF0008091070480620E940E068091070480622F
:102000000E940E0684E0809308048CE00E940E0675
:1020100081E00E940E068BE39FE10197F1F7109398
:10202000090486E00E940E0660E080E00E94DA0566
:102030006FEF88E00E94DA0560E281E00E94DA0535
:102040006FEF84E00E94DA056FEF83E00E94DA050B
:102050006FEF82E00E94DA0568EC84E00E94DA0506
:1020600062E383E00E94DA0562E382E00E94DA051F
:1020700013E001E0E0911604F09117041386158631
:102080001486128611861086178216821582148293
:102090001382109214041092150462E370E080E041
:1020A00090E00E949802BE01665F7F4F8091160407
:1020B000909117040E94BE07882309F47AC067E054
:1020C000CE010A960E94350699898913ECCF80913A
:1020D00014048F5F809314048A85883231F008F0ED
:1020E0004EC0803111F08232F1F6809115048F5F7D
:1020F0008093150480910D04811128C080911604ED
:10210000909117040E94F206BE01665F7F4F809196
:102110001604909117040E94D30640E064EB80916E
:102120001604909117040E949F06809116049091C6
:1021300017040E944C06F82E809116049091170403
:102140000E94F206F11002C000930D048A858031CE
:1021500009F1BE016F5F7F4FCE010A960E942A07E8
:10216000882359F08D819A859B3311F487FD12C025
:102170008F3391F058F48F31C1F080E00EC08B3373
:1021800009F4B3CF823409F08ECFAFCF8F3579F019
:102190008F3799F78CE001C08AE09091100498176E
:1021A00008F081CF809310047ECF89E0F6CF8BE0DA
:1021B000F4CF80911404811103C0115009F05ACF5B
:1021C00061E089E00E94F40060E08AE00E94F4008F
:1021D00061E08BE00E94F40060E08CE00E94F4007B
:1021E00060E086E00E94F400E0916A03F0916B03E6
:1021F00082E08083E0916603F09167031082E091B2
:102200006803F091690380E1808310927203E0918A
:102210006E03F0916F0386E08083E0916C03F09190
:102220006D03808180618083E0916C03F0916D0388
:10223000808188608083E0916C03F0916D038081E0
:1022400080688083E0916C03F0916D0380818F7DC5
:1022500080830BE31FE140E8242EEE24E394F12C6D
:10226000CC24C394D12C72E0A72EB12C98E9492E2E
:1022700090E0592E25ED622E20E0722E31EC832E57
:1022800030E0932E298280EC8A83CE0101960E9451
:10229000F30560E084E00E94C60060E082E00E94F6
:1022A000C60081E00E940E06C8010197F1F767ECB5
:1022B00071E083E094E00E94F90987EC91E00E94CC
:1022C000E6090E94000BF0920101E0920001F20188
:1022D0008491F301F491FA8BF4013490332079F076
:1022E00081110E949D00E32DF0E0EE0FFF1FEF54DF
:1022F000FF4FA591B4918C91FA898F2319F40E9414
:10230000000BE5CF0E943E0820E030E040EF51E4B2
:102310000E94171487FD1FC060E082E00E94C60083
:1023200060E084E00E94C6000E94000B6FEC71E048
:102330008AE593E00E94F9090E94FB096FEE71E0C3
:1023400083E094E00E94F90964E670E080E090E0A8
:102350000E949802D7CF80910001909101010497CB
:102360000CF0BCC068EE73E080E090E00E94980240
:1023700061E082E00E94C6000E94000B0E94FB09FF
:102380000E94570A8091EC029091ED02A091EE021A
:10239000B091EF020B97A105B1054CF58CEF91E0E0
:1023A0000E94E6090E94000B0E94FB096CEF71E09D
:1023B00083E094E00E94F90960E082E00E94C60098
:1023C00060E084E00E94C6008CE092E00E94E60992
:1023D0000E949C07B092EB02A092EA020E941D0AA2
:1023E00068EB7BE080E090E00E949802C9CF80918A
:1023F000E6029091E702A091E802B091E9020B9702
:10240000A105B1050CF0A7CF83E292E00E94E60996
:102410000E94000B0E94FB0963E272E083E094E0FB
:102420000E94F90960E082E00E94C60060E084E05A
:102430000E94C60083E392E00E94E60981E00E94C8
:102440000E06C8010197F1F78AE492E00E94E609BE
:102450004091000150910101052E000C660B770B95
:102460008AE593E00E94B00969E371E08AE593E0B0
:102470000E94550929822A82CE0101960E94F30505
:102480006AE472E083E094E00E94F909409100015F
:1024900050910101052E000C660B770B83E094E050
:1024A0000E94B009809100019091010101969093E2
:1024B000010180930001D092EB02C092EA020E94D7
:1024C0001D0A0E94000B0E949C0768EB7BE080E0E5
:1024D00090E00E9498020E94570A89CF81E592E01D
:1024E0000E94E6090E94FB0961E772E083E094E044
:1024F0000E94F90960E773E088E00E94250166E91F
:1025000070E080E090E00E94980288E00E94CD0296
:1025100066E970E080E090E00E94980260E773E076
:1025200088E00E94250166E970E080E090E00E946A
:10253000980288E00E94CD0266E970E080E090E0B9
:102540000E94980260E773E088E00E94250166E936
:1025500070E080E090E00E94980288E00E94CD0246
:1025600080E090E0892B09F48DCE0E9463038823DC
:1025700009F47CCE0E94000079CE5058BB27AA27D0
:102580000E94D5120C94DD130E94CF1338F00E94E4
:10259000D61320F039F49F3F19F426F40C94CC1391
:1025A0000EF4E095E7FB0C94C613E92F0E94EE139E
:1025B00058F3BA17620773078407950720F079F478
:1025C000A6F50C9410140EF4E0950B2EBA2FA02D46
:1025D0000B01B90190010C01CA01A0011124FF27D0
:1025E000591B99F0593F50F4503E68F11A16F040CB
:1025F000A22F232F342F4427585FF3CF46953795CA
:102600002795A795F0405395C9F77EF41F16BA0B8E
:10261000620B730B840BBAF09150A1F0FF0FBB1F3C
:10262000661F771F881FC2F70EC0BA0F621F731F85
:10263000841F48F4879577956795B795F7959E3FE2
:1026400008F0B0CF9395880F08F09927EE0F979573
:10265000879508950E94A21308F481E008950E94CE
:1026600036136894B1110C94111408950E94F61356
:1026700088F09F5798F0B92F9927B751B0F0E1F043
:10268000660F771F881F991F1AF0BA95C9F714C0F3
:10269000B13091F00E941014B1E008950C94101420
:1026A000672F782F8827B85F39F0B93FCCF386952C
:1026B00077956795B395D9F73EF490958095709589
:1026C00061957F4F8F4F9F4F0895E89409C097FB06
:1026D0003EF490958095709561957F4F8F4F9F4FF9
:1026E0009923A9F0F92F96E9BB279395F69587953D
:1026F00077956795B795F111F8CFFAF4BB0F11F400
:1027000060FF1BC06F5F7F4F8F4F9F4F16C08823A6
:1027100011F096E911C0772321F09EE8872F762FDC
:1027200005C0662371F096E8862F70E060E02AF01D
:102730009A95660F771F881FDAF7880F9695879509
:1027400097F90895990F0008550FAA0BE0E8FEEFDE
:1027500016161706E807F907C0F012161306E40765
:10276000F50798F0621B730B840B950B39F40A265E
:1027700061F0232B242B252B21F408950A2609F43C
:10278000A140A6958FEF811D811D089597F99F6740
:1027900080E870E060E008959FEF80EC08950024E9
:1027A0000A941616170618060906089500240A94B6
:1027B00012161306140605060895092E0394000C3C
:1027C00011F4882352F0BB0F40F4BF2B11F460FFCB
:1027D00004C06F5F7F4F8F4F9F4F089557FD9058F4
:1027E000440F551F59F05F3F71F04795880F97FBD5
:1027F000991F61F09F3F79F087950895121613068F
:102800001406551FF2CF4695F1DF08C016161706BD
:102810001806991FF1CF86957105610508940895F2
:10282000E894BB2766277727CB0197F908950E9484
:10283000A21308F48FEF08950E942F140C94DD1357
:102840000E94CF1338F00E94D61320F0952311F088
:102850000C94C6130C94CC1311240C9411140E94E4
:10286000EE1370F3959FC1F3950F50E0551F629FD3
:10287000F001729FBB27F00DB11D639FAA27F00DD9
:10288000B11DAA1F649F6627B00DA11D661F829F00
:102890002227B00DA11D621F739FB00DA11D621FE5
:1028A000839FA00D611D221F749F3327A00D611D02
:1028B000231F849F600D211D822F762F6A2F1124E4
:1028C0009F5750409AF0F1F088234AF0EE0FFF1F17
:1028D000BB1F661F771F881F91505040A9F79E3F6E
:1028E000510580F00C94C6130C9411145F3FE4F36F
:1028F000983ED4F3869577956795B795F795E795C4
:102900009F5FC1F7FE2B880F911D9695879597F9CC
:1029100008950E94A213880B990B089597FB072E28
:1029200016F4009407D077FD09D00E94E31407FC49
:1029300005D03EF4909581959F4F089570956195CF
:102940007F4F0895A1E21A2EAA1BBB1BFD010DC0EB
:10295000AA1FBB1FEE1FFF1FA217B307E407F5074F
:1029600020F0A21BB30BE40BF50B661F771F881F2B
:10297000991F1A9469F760957095809590959B01C1
:10298000AC01BD01CF010895052E97FB1EF4009404
:102990000E94DB1457FD07D00E94A21407FC03D04D
:1029A0004EF40C94DB1450954095309521953F4F93
:1029B0004F4F5F4F089590958095709561957F4F2B
:1029C0008F4F9F4F0895AA1BBB1B51E107C0AA1F41
:1029D000BB1FA617B70710F0A61BB70B881F991FC0
:1029E0005A95A9F780959095BC01CD010895EE0FF9
:1029F000FF1F0590F491E02D0994F894FFCF01009A
:102A0000FF5E00BC007701000000009903F9022678
:102A100003E60357033503490300000000AB057EBE
:102A20000532065405770564055505000000001FB2
:102A300006F902320606040D0A002020202020207C
:102A4000202020202020202020200063686172693F
:102A50006F74206176616E63650063686172696F8F
:102A60007420726563756C650044697374616E638C
:102A700065206465206D657375726520656E2064E0
:102A800065686F7273206465206C6120706C61678B
:102A90006520283320636D20C3A02033206D2900DA
:102AA00044697374616E6365206D657375726565E5
:102AB000203A00636D00543D006E616E00696E66E1
:102AC000006F766600417474656E74650054C2B020
:102AD0002074726F7020686175746520706F7572F4
:102AE00020666F6E6374696F6E6E65720054205459
:102AF000726F702068617574650063686172696FD8
:102B00007420706F696E74204200736F6E2063686A
:102B10006172696F7420617520706F696E742042F4
:102B20000063686172696F7420706F696E74204110
:102B300000736F6E2063686172696F742061752025
:102B4000706F696E74204100412D52206E20007319
:102B50006F6E2063686172696F742071756920619E
:102B60002066696E6920756E206379636C65006309
:0A2B700079636C652066696E6900E8
:107E0000112484B714BE81FFF0D085E080938100F7
:107E100082E08093C00088E18093C10086E0809377
:107E2000C20080E18093C4008EE0C9D0259A86E02C
:107E300020E33CEF91E0309385002093840096BBD3
:107E4000B09BFECF1D9AA8958150A9F7CC24DD24C4
:107E500088248394B5E0AB2EA1E19A2EF3E0BF2EE7
:107E6000A2D0813461F49FD0082FAFD0023811F036
:107E7000013811F484E001C083E08DD089C08234E0
:107E800011F484E103C0853419F485E0A6D080C0E4
:107E9000853579F488D0E82EFF2485D0082F10E0AE
:107EA000102F00270E291F29000F111F8ED06801E7
:107EB0006FC0863521F484E090D080E0DECF843638
:107EC00009F040C070D06FD0082F6DD080E0C81688
:107ED00080E7D80618F4F601B7BEE895C0E0D1E017
:107EE00062D089930C17E1F7F0E0CF16F0E7DF06D8
:107EF00018F0F601B7BEE89568D007B600FCFDCFD4
:107F0000A601A0E0B1E02C9130E011968C91119780
:107F100090E0982F8827822B932B1296FA010C0160
:107F200087BEE89511244E5F5F4FF1E0A038BF0790
:107F300051F7F601A7BEE89507B600FCFDCF97BE46
:107F4000E89526C08437B1F42ED02DD0F82E2BD052
:107F50003CD0F601EF2C8F010F5F1F4F84911BD097
:107F6000EA94F801C1F70894C11CD11CFA94CF0C13
:107F7000D11C0EC0853739F428D08EE10CD085E9AC
:107F80000AD08FE07ACF813511F488E018D01DD067
:107F900080E101D065CF982F8091C00085FFFCCF94
:107FA0009093C60008958091C00087FFFCCF809118
:107FB000C00084FD01C0A8958091C6000895E0E648
:107FC000F0E098E1908380830895EDDF803219F02E
:107FD00088E0F5DFFFCF84E1DECF1F93182FE3DFCA
:107FE0001150E9F7F2DF1F91089580E0E8DFEE27F6
:047FF000FF270994CA
:027FFE00040479
:00000001FF
