:100000000C9473000C949B000C949B000C949B002C
:100010000C949B000C949B000C949B000C94950CEE
:100020000C949B000C949B000C949B000C949B00E4
:100030000C949B000C949B000C949B000C949B00D4
:100040000C944B0C0C949B000C94170D0C94F10C1D
:100050000C949B000C949B000C949B000C949B00B4
:100060000C94490D0C949B00005EBCE2613FDD8363
:10007000C29C7E20A3FD1F41009D23BE46DB65F888
:100080008C11AF32CA57E974000000002400270029
:100090002A0000000008000201000003040700001D
:1000A00000000000000000000000250028002B00D8
:1000B00002000000002300260029000404040404B8
:1000C0000404040202020202020303030303030105
:1000D00002040810204080010204081020010204DC
:1000E00008102000AD0E11241FBECFEFD8E0DEBFF8
:1000F000CDBF12E0A0E0B1E0E0EBF9E202C0059074
:100100000D92AA37B107D9F724E0AAE7B2E001C0FF
:100110001D92AE32B207E1F710E0C3E7D0E004C0B1
:100120002197FE010E94D014C237D107C9F70E945F
:100130003A0F0C94D6140C940000833081F028F40C
:10014000813099F08230A9F008958730A9F0883085
:10015000C9F08430B1F4809180008F7D03C080911C
:1001600080008F7780938000089584B58F7784BD59
:10017000089584B58F7DFBCF8091B0008F778093F9
:10018000B00008958091B0008F7DF9CF1F93CF9379
:10019000DF93282F30E0F901EE56FF4F8491F901EB
:1001A000E153FF4FD491F901E554FF4FC491CC23A3
:1001B000A9F0162F81110E949D00EC2FF0E0EE0FA8
:1001C000FF1FEA55FF4FA591B4918FB7F894EC91BA
:1001D000111108C0D095DE23DC938FBFDF91CF9142
:1001E0001F910895DE2BF8CFCF93DF9390E0FC01B1
:1001F000E153FF4F249185549F4FFC018491882344
:10020000D1F090E0880F991FFC01E857FF4FA591AE
:10021000B491FC01EA55FF4FC591D49161110EC014
:100220009FB7F8948C91E22FE0958E238C932881D0
:10023000E223E8839FBFDF91CF9108958FB7F894B1
:10024000EC91E22BEC938FBFF6CFCF92DF92EF923F
:10025000FF92CF936B0190910001891749F09F3F66
:1002600009F44EC0CF91FF90EF90DF90CF900895AA
:10027000E0EBF0E0C491C7FDF5CF61E00E94F4002F
:10028000CC2319F0C23009F0E3C0F12CE12C68E472
:1002900078EE81E090E0A70196010E949D14BA01DA
:1002A000A9014150510961097109CC2309F410C118
:1002B000C23009F09EC04F3F51056105710509F03C
:1002C0000CF4C4C064E274EF80E090E0A7019601F2
:1002D0000E949D14BA01A901415051096109710997
:1002E00095E08091B100887F892B8093B100C13067
:1002F00009F4C6C0C23009F4D8C0C111B3CF94C04C
:1003000080930001E0EBF0E0C491CF3F09F4AACF65
:10031000C13039F148F0C23009F445C0C7FDA2CF61
:1003200061E00E94F400AECF14BC15BC94B592609D
:1003300094BD95B5916095BD282F30E0F901E55445
:10034000FF4FE491F0E0EE0FFF1FEA55FF4F45919C
:100350005491F901E153FF4FE491E093F902C0E0B9
:100360008CCF109280001092810090918100986053
:100370009093810090918100916090938100282F4B
:1003800030E0F901E554FF4FE491F0E0EE0FFF1F7C
:10039000EA55FF4F45915491F901E153FF4FE49124
:1003A000E093F8026ACF1092B0001092B1009091E1
:1003B000B00092609093B0009091B10091609093E2
:1003C000B100282F30E0F901E554FF4FE491F0E04F
:1003D000EE0FFF1FEA55FF4F459154915093F702DE
:1003E0004093F602F901E153FF4FE491E093F502E7
:1003F00044CF4F3F51056105710541F13CF162E188
:100400007AE780E090E0A70196010E949D14BA016E
:10041000A9014150510961097109C11162C094E0FB
:1004200085B5887F892B85BD47BD8FEF9FEFDC01A8
:100430008093020390930303A0930403B0930503F6
:1004400080916E00826080936E000CCF94E049CF63
:10045000960150E040E060E072E18AE790E00E949F
:100460009D14BA01A9014150510961097109C130B6
:1004700009F03DCF80918100887F81608093810069
:1004800050938900409388008FEF9FEFDC018093A9
:10049000FE029093FF02A0930003B09301038091AA
:1004A0006F00826080936F00DDCE4093B3008FEFCA
:1004B0009FEFDC018093FA029093FB02A093FC0271
:1004C000B093FD0280917000826080937000CACE6C
:1004D00093E04F3F51056105710511F00CF08FCF8E
:1004E0009FCF96E0FECE3FB7F8948091F1029091B5
:1004F000F202A091F302B091F40226B5A89B05C0C8
:100500002F3F19F00196A11DB11D3FBFBA2FA92F92
:10051000982F8827BC01CD01620F711D811D911D8F
:1005200042E0660F771F881F991F4A95D1F70895FB
:100530008F929F92AF92BF92CF92DF92EF92FF92F3
:100540006B017C010E9473024B015C01C114D10458
:10055000E104F104B9F00E947302681979098A096B
:100560009B09683E73408105910580F321E0C21A22
:10057000D108E108F10888EE880E83E0981EA11CDE
:10058000B11CE4CFFF90EF90DF90CF90BF90AF9081
:100590009F908F9008950895089590910001891378
:1005A0000BC0E0EBF0E0E4919FEF90930001E130AD
:1005B00049F028F0E23061F060E00C94C60010923F
:1005C0006E00FACF90916F009D7F90936F00F4CFF3
:1005D000909170009D7F9093700091E09093B00097
:1005E0009091B100987F94609093B1001092B30005
:1005F000E3CFAF92BF92CF92DF92EF92FF920F9331
:100600001F93CF93DF936C017B018B01040F151FA8
:10061000EB015E01AE18BF08C017D10759F0699110
:10062000D601ED91FC910190F081E02DC601099574
:10063000892B79F7C501DF91CF911F910F91FF9021
:10064000EF90DF90CF90BF90AF900895FC01538D55
:10065000448D252F30E0842F90E0821B930B54179C
:1006600010F0CF96089501970895FC01918D828D29
:10067000981761F0A28DAE0FBF2FB11D5D968C91C2
:10068000928D9F5F9F73928F90E008958FEF9FEF01
:100690000895FC01918D828D981731F0828DE80FBD
:1006A000F11D858D90E008958FEF9FEF0895FC0177
:1006B000918D228D892F90E0805C9F4F821B910944
:1006C0008F739927089586E593E00E94570321E0F0
:1006D000892B09F420E0822F089580E090E0892B97
:1006E00029F00E94630381110C9400000895FC011D
:1006F000A48DA80FB92FB11DA35ABF4F2C91848D83
:1007000090E001968F739927848FA689B7892C93DF
:10071000A089B1898C91837080648C93938D848D32
:10072000981306C00288F389E02D80818F7D808335
:100730000895EF92FF920F931F93CF93DF93EC01F5
:1007400081E0888F9B8D8C8D98131AC0E889F98978
:10075000808185FF15C09FB7F894EE89FF8960837B
:10076000E889F98980818370806480839FBF81E0FC
:1007700090E0DF91CF911F910F91FF90EF9008953E
:10078000F62E0B8D10E00F5F1F4F0F731127E02E19
:100790008C8D8E110CC00FB607FCFACFE889F98951
:1007A000808185FFF5CFCE010E947703F1CFEB8DDD
:1007B000EC0FFD2FF11DE35AFF4FF0829FB7F89425
:1007C0000B8FEA89FB8980818062CFCFCF93DF9343
:1007D000EC01888D8823B9F0AA89BB89E889F98959
:1007E0008C9185FD03C0808186FD0DC00FB607FC8E
:1007F000F7CF8C9185FFF2CF808185FFEDCFCE01C1
:100800000E947703E9CFDF91CF9108950895209159
:10081000BB02260F3327331F21323105ECF4209120
:100820002C03FC0190E080E0243069F082E0089520
:10083000A091BB022191AC0145565D4FA40FB52F8D
:10084000B11D2C930196861798F38091BB02680F17
:100850006093BB0280E0089581E0089510922C031C
:1008600081E080932B031092060361E082E10E94F5
:10087000C60061E083E10E94C600E9EBF0E0808100
:100880008E7F808380818D7F808388E48093B80011
:1008900085E48093BC000895CF93DF9391E090931B
:1008A0009A028823B9F0C091B800D091BA00809123
:1008B000BC008A7B8093BC0060E082E10E94C6009D
:1008C00060E083E10E94C6000E942E04D093BA002B
:1008D000C093B800DF91CF910895CF92DF92EF924D
:1008E000FF920F931F93CF93DF93D091550381E035
:1008F000D13208F09CC0C09154030E9473026B0176
:100900007C0180912C0381116CC082E080932C03C8
:1009100081E080932B038FEF80932A0310922903A9
:10092000D0932803A4E3B3E0E8E0F3E080E0D81339
:100930008DC01092070380910703CC0FC82BC09382
:10094000070380910603813009F084C010920603EA
:100950000E9473026B017C01809107038093BB00AE
:1009600080912E0390912F03A0913003B091310319
:10097000892B8A2B8B2BA1F00E94730200912E03EE
:1009800010912F0320913003309131036C197D09B0
:100990008E099F09061717072807390708F442C070
:1009A0008091BC0083FDD8CF85EC8093BC000E9471
:1009B00073026B017C0180912C03823009F44CC0DE
:1009C00080912A038F3F09F469C080912A03803205
:1009D00009F466C080912A03803309F463C084E07F
:1009E00026C080912E0390912F03A0913003B091E7
:1009F0003103892B8A2B8B2B09F483CF0E9473023E
:100A000000912E0310912F03209130033091310378
:100A10006C197D098E099F090617170728073907E2
:100A200008F06FCF80912D030E944C0485E0109256
:100A300033031092550310923203DF91CF911F912F
:100A40000F91FF90EF90DF90CF9008959D9191933B
:100A50008F5F6DCF85EEA9CF80912E0390912F03EC
:100A6000A0913003B0913103892B8A2B8B2B09F491
:100A7000A2CF0E94730200912E0310912F032091A8
:100A80003003309131036C197D098E099F090617D7
:100A900017072807390708F08ECFC4CF80E0C7CFEB
:100AA00082E0C5CF83E0C3CF0895E091E302809157
:100AB000E202E81730F4F0E0E658FD4F808190E064
:100AC00008958FEF9FEF08959091E3028091E202E5
:100AD0002FEF3FEF981748F4E92FF0E0E658FD4F6D
:100AE000208130E09F5F9093E302C90108958091D7
:100AF000E2029091E302891B990B0895CF92DF9255
:100B0000EF92FF920F931F93CF93DF937C01CB0162
:100B10008A0120913203222389F0EB016B01C40E7C
:100B2000D51ECC15DD0569F06991D701ED91FC91D9
:100B30000190F081E02DC7010995F3CF642F0E9449
:100B40000704C801DF91CF911F910F91FF90EF90A3
:100B5000DF90CF900895CF93DF931F92CDB7DEB78C
:100B60006983209132032223F9F02091550320322A
:100B700058F021E030E0FC013383228390E080E0F4
:100B80000F90DF91CF91089580913303E82FF0E02B
:100B9000EC5CFC4F998190838F5F8093330380934B
:100BA000550381E090E0ECCF61E0CE0101960E9418
:100BB0000704F7CFCF93C62F91E09093320392E6CC
:100BC000909354031092330310925503682F83EFD0
:100BD00093E00E94AB056C2F83EF93E00E94AB057E
:100BE000CF910C946D04CF93DF93EC0181E080935F
:100BF00032038EE380935403109233031092550313
:100C0000688183EF93E00E94AB05698183EF93E0F5
:100C10000E94AB05DF91CF910C946D04CF93DF93CD
:100C200000D0CDB7DEB790E899838A83CE010196D4
:100C30000E94F3050F900F90DF91CF910895CF930D
:100C4000DF9300D0CDB7DEB780E489836A83CE011D
:100C500001960E94F30581E090E00F900F90DF91E4
:100C6000CF91089590E080E00895DC0180E061502C
:100C700090F09D919827E92FEF70F0E0E859FF4F31
:100C80002491E92FE295EF70F0E0E858FF4FE491EE
:100C9000822F8E27ECCF0895DC012C911196ED91D7
:100CA000FC91F8948181822B81839281322F30953F
:100CB0009323928387E090E00197F1F7818183236A
:100CC000818383E290E00197F1F790817894EFECD3
:100CD000F0E03197F1F7922381E009F480E0089584
:100CE000FC0190810180F281E02D292F209560FF89
:100CF00014C0F8948281822382838181892B81832D
:100D0000A3E2B0E01197F1F78281982B9283789457
:100D100087ED90E00197F1F70895F894828182239E
:100D200082838181892B8183AFEFB0E01197F1F746
:100D30008281982B928378948FE090E0EBCFDF92C2
:100D4000EF92FF920F931F93CF93DF93EC01D62E78
:100D5000E42E08E010E0FF24F39461E08D2D8F2154
:100D600009F460E0CE010E947006FF0C01501109E9
:100D7000A1F7E11010C0F894E981FA81918188818E
:100D8000809589238183E981FA8192818881809588
:100D9000892382837894DF91CF911F910F91FF90E7
:100DA000EF90DF900895EF92FF920F931F93CF93F0
:100DB000DF938C017B0140E065E50E949F06E7011F
:100DC00088E0E80EF11C699140E0C8010E949F068E
:100DD000CE15DF05C1F7DF91CF911F910F91FF90E5
:100DE000EF900895FC0190810180F281E02DF8944C
:100DF0008181292F20958223818378943DE743E0E8
:100E000050E0315029F1DA011197F1F780818923FF
:100E1000C1F3F8948281822382838181892B81832B
:100E20007894ABE7B7E01197F1F7F89481818223CA
:100E30008183A3E1B1E01197F1F78081982381E0EC
:100E400009F080E07894E3E6F6E03197F1F7089551
:100E500080E008956F927F928F929F92AF92BF929F
:100E6000CF92DF92EF92FF920F931F93CF93DF9376
:100E70008C01EB0180911204909113040E94F20600
:100E8000882309F43FC0B8018091120490911304A3
:100E90000E94D30640E06EEB8091120490911304FF
:100EA0000E949F067E016E0189E0C80ED11C8E0152
:100EB000A0901204B090130488E0882E912C712C1D
:100EC00066246394C5010E944C0681117628660C45
:100ED000E1E08E1A9108B1F7F80171928F01CE16F8
:100EE000DF0631F780911204909113040E94F206FC
:100EF000813041F4F70181917F01811105C0E01734
:100F0000F107C1F790E008C068E0CE010E94350605
:100F100091E028852813F6CF892FDF91CF911F917B
:100F20000F91FF90EF90DF90CF90BF90AF909F9088
:100F30008F907F906F90089568EB71E087E00E943A
:100F4000250166E970E080E090E00E94980287E069
:100F50000E94CD0266E970E080E090E00E94980275
:100F600068EB71E087E00E94250166E970E080E0AF
:100F700090E00E94980287E00C94CD02BF92CF923D
:100F8000DF92EF92FF920F931F93CF93DF93EC01C9
:100F9000B62EC72E8D85811105C0CE010E94F206A6
:100FA00081110EC01B861D861C8680E0DF91CF91CB
:100FB0001F910F91FF90EF90DF90CF90BF90089519
:100FC00040E060EFCE010E949F0601E0E12CD12CB1
:100FD00011E0CE010E944C06F82ECE010E944C0674
:100FE00091E0F91218C0813099F51134D8F2DB86FE
:100FF000D11002C081E08D878B81882399F22396DE
:10100000EB2DFC2DCF01089629912193E817F907C4
:10101000D9F781E0CBCFEE2DF0E0F8120FC08B8531
:101020001817A0F4DE01AE0FBF1F13968C9180231A
:1010300079F4F12C193008F41C87D12EEC0FFD1F28
:101040008381902F9095892383830AC08113F1CFE8
:10105000FE01EE0DF11D8381802B8383FF24F39429
:101060006F2DCE010E9470061F5F000F11F4E394F4
:1010700001E087E08E1508F0ACCFB7CFCF92DF92BA
:10108000EF92FF920F931F93CF93DF93CDB7DEB70D
:1010900061970FB6F894DEBF0FBECDBF80911004EC
:1010A000811113C060E070E08EEF92EC61960FB694
:1010B000F894DEBF0FBECDBFDF91CF911F910F918E
:1010C000FF90EF90DF90CF900895E0911204F0919F
:1010D00013041386158614861286118610861782CD
:1010E0001682158214821382BE01665F7F4F809143
:1010F0001204909113040E94BE07882399F267E0BE
:10110000CE010A960E94350699898913CBCFBE017C
:101110006F5F7F4FCE010A960E942A07882311F243
:101120009A81C12CD12C760197FF06C0C12CD12CFD
:10113000F8EFEF2EFF24FA944A8589814B33E1F5CD
:101140002D8127FF39C080FDADCF082F10E030E0A2
:1011500020E073E0000F111F221F331F7A95D1F793
:10116000007E177022273327892F90E0B0E0A0E09F
:10117000EBE0880F991FAA1FBB1FEA95D1F7802BC0
:10118000912BA22BB32B8C019D010C291D292E29FB
:101190003F29013854EE15075FEF250735070CF49A
:1011A00081CFC901B8010E94401320E030E040E047
:1011B0005CE30E94F5137ACF092F10E0102F00276F
:1011C000110F110F110F28E0829FB0011124062B7F
:1011D000172B012E000C220B330B0C291D292E2955
:1011E0003F29483269F4803531F4953091F68F818A
:1011F0008C3079F657CF8F3F61F6973051F652CF4A
:10120000403139F66885662321F270E08F81AB01A9
:10121000481B5109CA019695982F8827979587955D
:101220000E946714CB01770FAA0BBB0B53E0000F92
:10123000111F221F331F5A95D1F7007827703327CB
:101240000052110921093109800F911FA21FB31FFC
:1012500097018601082B192B2A2B3B2B9ACF0F9332
:101260001F9390E0FC01E153FF4F6491FC01E554B2
:10127000FF4FE491F0E0EE0FFF1FEF54FF4F859119
:10128000949100E412E42FE030E0462F0E94680EB3
:10129000611571058105910529F06F5F7F4F8F4FB3
:1012A0009F4F9F701F910F910895FB0101900020A7
:1012B000E9F73197AF01461B570BDC01ED91FC912B
:1012C0000280F381E02D09948F929F92AF92BF929A
:1012D000EF92FF920F931F93CF93DF93CDB7DEB7BB
:1012E000A1970FB6F894DEBF0FBECDBF7C01FA0107
:1012F000CB0119A2223008F42AE08E010F5D1F4FA6
:10130000822E912CB12CA12CBF01A50194010E9429
:101310007B14F901CA016A300CF5605DD8016E9347
:101320008D01232B242B252B79F790E080E010975B
:1013300021F0BD01C7010E945509A1960FB6F8948E
:10134000DEBF0FBECDBFDF91CF911F910F91FF90F8
:10135000EF90BF90AF909F908F900895695CDECF23
:10136000CF92DF92EF92FF920F931F93CF93DF9371
:1013700077FF21C06A017B01EC01E881F9810190CE
:10138000F081E02D6DE209958C0144275527BA01C3
:101390004C195D096E097F092AE0CE010E9464099B
:1013A000800F911FDF91CF911F910F91FF90EF90D0
:1013B000DF90CF9008952AE0DF91CF911F910F9198
:1013C000FF90EF90DF90CF900C946409CF93DF9360
:1013D000BC0186E593E00E945509EC0167E371E0EA
:1013E00086E593E00E9455098C0F9D1FDF91CF91F8
:1013F00008950C9455090F931F93CF93DF9300D05A
:10140000CDB7DEB700E8098310EC1A83CE01019650
:101410000E94F3056AE371E08FEF93E00E94F909FF
:1014200009831A83CE0101960E94F3050F900F9055
:10143000DF91CF911F910F91089560E089E00E94A4
:10144000C60083E090E00197F1F761E089E00E9437
:10145000C60083E290E00197F1F760E089E00E9426
:10146000C6008AE00E942F090E94401326E933E457
:101470004BE05DE30E94F51320E030E040E05FE3E5
:101480000E94F5130E9408136093E4027093E50232
:101490008093E6029093E7026450710981099109F3
:1014A000683271408105910520F08BE491E00E9443
:1014B000E60962E871E086E593E00E94F90940914F
:1014C000E4025091E5026091E6027091E70286E540
:1014D00093E00E94B00985E991E00E94E60960E08E
:1014E0008BE00E94C60083E090E00197F1F761E095
:1014F0008BE00E94C60083E290E00197F1F760E084
:101500008BE00E94C6008CE00E942F090E944013CD
:1015100026E933E44BE05DE30E94F51320E030E080
:1015200040E05FE30E94F5130E9408136093E80215
:101530007093E9028093EA029093EB026450710980
:1015400081099109683271408105910550F08BE461
:1015500091E00E94E60968EE73E080E090E00C9470
:10156000980262E871E086E593E00E94F9094091F3
:10157000E8025091E9026091EA027091EB0286E57F
:1015800093E00E94B00985E991E0E3CF8F929F92AA
:10159000AF92BF92CF92DF92EF92FF92CF93DF9301
:1015A00000D0CDB7DEB780911204909113040E9451
:1015B000F20640E06CEC80911204909113040E94BA
:1015C0009F064091090464E48091120490911304F1
:1015D0000E949F068FB7F894C090ED02D090EE0263
:1015E000E090EF02F090F0028FBF80910D0488230D
:1015F00029F180910E04882309F46EC080910904BA
:1016000081116AC080911204909113040E944C06CB
:101610008130A1F02FB7F8948091ED029091EE0205
:10162000A091EF02B091F0022FBF8C199D09AE0975
:10163000BF098E3E9240A105B10520F30E943E08ED
:101640006B017C0180E8898389E88A83CE01019659
:101650000E94F30568E971E08FEF93E00E94F909B9
:10166000A7019601C701B6010E9462146BE971E0FF
:1016700081111BC046015701E894B7F82FEF3FEFE7
:101680004FE75FE7C501B4010E94621481114DC0AC
:101690002FEF3FEF4FE75FE7C501B4010E9403134F
:1016A00018160CF042C06FE971E08FEF93E00E94D2
:1016B000550961E070E080E090E00E9498020F9090
:1016C0000F90DF91CF91FF90EF90DF90CF90BF9080
:1016D000AF909F908F900895E0910C04E9508EEEAA
:1016E00092E0E33038F4F0E0EE0FFF1FEF5FFE4FC3
:1016F000808191816C01F12CE12C80910A04882376
:1017000029F060E080910B040E94C600C701B60179
:101710000E94980280910A04882309F48FCF61E027
:1017200080910B040E94C60089CF2FEF3FEF4FE757
:101730005FE4C701B6010E94F01318161CF463EAB7
:1017400071E0B3CF2FEF3FEF4FE75FECC701B6017A
:101750000E94031387FDF3CF20E030E0A901C70109
:10176000B6010E94031387FF09C06DE28FEF93E07B
:101770000E941F06F7FAF094F7F8F0942AE037ED8C
:1017800043EA5BE3C701B6010E9497124B015C017B
:101790000E940F136B017C010E943E139B01AC0160
:1017A000C501B4010E9496124B015C012AE0B70109
:1017B000A6018FEF93E00E9464096EE28FEF93E041
:1017C0000E941F0620E030E040E251E4C501B40170
:1017D0000E94F5134B015C010E940F136B01F12C69
:1017E000E12C2AE0B701A6018FEF93E00E94640983
:1017F000C701B6010E943E139B01AC01C501B401B3
:101800000E94961220E030E040E251E40E94F5137D
:101810000E940F13AB0170E060E02AE08FEF93E0CD
:101820000E94640946CF85ED8093BC0080912E0311
:1018300090912F03A0913003B09131030796A11D21
:10184000B11D23E0B695A795979587952A95D1F771
:101850002091BC0024FD03C010922C0308954091F8
:101860002E0350912F036091300370913103452B6B
:10187000462B472B69F30097A105B10541F02AE2F9
:101880002A95F1F700C00197A109B109E1CF809134
:101890002D030C944C041F920F920FB60F9211243B
:1018A0002F933F938F939F93AF93BF938091ED02BC
:1018B0009091EE02A091EF02B091F0023091EC0213
:1018C00023E0230F2D3758F50196A11DB11D20935C
:1018D000EC028093ED029093EE02A093EF02B0939E
:1018E000F0028091F1029091F202A091F302B09186
:1018F000F4020196A11DB11D8093F1029093F202B2
:10190000A093F302B093F402BF91AF919F918F9196
:101910003F912F910F900FBE0F901F90189526E8C2
:10192000230F0296A11DB11DD2CF1F920F920FB6A9
:101930000F9211242F933F934F935F936F937F9355
:101940008F939F93AF93BF93EF93FF938091FA028E
:101950009091FB02A091FC02B091FD02892B8A2B91
:101960008B2BD1F19091F502E091F602F091F70204
:101970008081892780838091FA029091FB02A09157
:10198000FC02B091FD02181619061A061B069CF4FB
:101990008091FA029091FB02A091FC02B091FD02AD
:1019A0000197A109B1098093FA029093FB02A093D9
:1019B000FC02B093FD02FF91EF91BF91AF919F9117
:1019C0008F917F916F915F914F913F912F910F90E8
:1019D0000FBE0F901F901895809100010E94CD02BC
:1019E000EACF1F920F920FB60F9211242F933F93BD
:1019F0004F935F936F937F938F939F93AF93BF9317
:101A0000EF93FF9386E593E00E947703FF91EF91B8
:101A1000BF91AF919F918F917F916F915F914F9106
:101A20003F912F910F900FBE0F901F9018951F920E
:101A30000F920FB60F9211242F938F939F93EF93D2
:101A4000FF93E0916603F09167038081E0916C035E
:101A5000F0916D0382FD1BC0908180916F038F5FB9
:101A60008F7320917003821741F0E0916F03F0E0D3
:101A7000EA5AFC4F958F80936F03FF91EF919F91EE
:101A80008F912F910F900FBE0F901F90189580810E
:101A9000F4CF1F920F920FB60F9211242F933F9302
:101AA0004F935F936F937F938F939F93AF93BF9366
:101AB000EF93FF938091B900887F803609F44AC084
:101AC000F0F5883209F4A7C018F5803109F49BC0FD
:101AD000B8F4882309F4F9C0883009F494C0FF9160
:101AE000EF91BF91AF919F918F917F916F915F9196
:101AF0004F913F912F910F900FBE0F901F9018950F
:101B0000883109F488C0803251F780932A0314C0C9
:101B1000803409F49DC040F48033B9F38833F9F67A
:101B200080932A0385ECB0C0803509F485C08835E0
:101B300009F496C0883499F60E94130CD0CF8839E6
:101B400009F48CC038F5883729F050F4883611F044
:101B5000803729F683E080932C031092DD0257C072
:101B6000883809F47BC0803919F0803809F0B7CF84
:101B70008091DD02803208F071C0E091DD0281E0E9
:101B80008E0F8093DD028091BB00F0E0E354FD4FA7
:101B900080833DC0803B39F0E0F4803A09F479C09D
:101BA000883A09F09CCF84E080932C031092BC0209
:101BB0001092BB02E091DE02F091DF020995809164
:101BC000BB0281110FC081E08093BB0210929B0287
:101BD00009C0803C09F4A6CF883C09F4A3CF883B18
:101BE00009F07DCFE091BC0281E08E0F8093BC02B2
:101BF000F0E0E556FD4F80818093BB009091BC02E0
:101C00008091BB0229C0809107038093BB0085ECC3
:101C10008093BC0064CF909129038091280398178A
:101C200058F5E091290381E08E0F80932903F0E0BD
:101C3000E85FFC4F8081E9CFE091290381E08E0FBE
:101C4000809329038091BB00F0E0E85FFC4F808324
:101C500090912903809128039817C8F285E8D8CF7E
:101C6000E091290381E08E0F809329038091BB00CE
:101C7000F0E0E85FFC4F808380912B0381115CCF03
:101C800081E08093060384EA8093BC0010922C03C9
:101C900026CF85EC8093BC0010922C038091DD024E
:101CA000803230F4E091DD02F0E0E354FD4F108229
:101CB0006091DD0270E0E091E002F091E1028DEBD5
:101CC00092E009951092DD020ACF10922A0334CFD8
:101CD000CF92DF92EF92FF920F931F93E82FF92F8D
:101CE00005C0015011092109310961F19081962344
:101CF0009417B9F305C0015011092109310911F1F7
:101D0000908196239413F7CFC12CD12CE12CF12C88
:101D10000AC08FEFC81AD80AE80AF80A0C151D0580
:101D20002E053F0579F080818623841791F36C2D71
:101D30007D2D8E2D9F2D1F910F91FF90EF90DF90A5
:101D4000CF90089560E070E080E090E01F910F91E7
:101D5000FF90EF90DF90CF900895E6E5F3E01382D7
:101D6000128288EE93E0A0E0B0E084839583A6839E
:101D7000B7832BE031E03183208325EC30E03587D9
:101D8000248724EC30E03787268720EC30E0318B45
:101D9000208B21EC30E0338B228B22EC30E0358B32
:101DA000248B26EC30E0378B268B118E128E138E0F
:101DB000148EE3EFF3E01382128284839583A6836B
:101DC000B7838DE191E09183808360E087E00E949A
:101DD000F400E6EDF0E0E491A0E2B4E0EC93E2EC94
:101DE000F0E0E491F0E0EE0FFF1FEF54FF4F85911C
:101DF000949112969C938E9311971B961C921B970D
:101E00001D961C921D971C961C921C971A961C924C
:101E10001A9719961C92199718961C92189717964C
:101E20001C92179716961C92169715961C9215974A
:101E300014961C92149713961C921397E9E0F4E001
:101E400017821086108289E0838381E084838583F2
:101E500086831182168A158A8FEF838B148AB28744
:101E6000A187EFEFF3E0138212828FE291E091837A
:101E700080830895CF93DF93CDB7DEB761970FB618
:101E8000F894DEBF0FBECDBF789484B5826084BD68
:101E900084B5816084BD85B5826085BD85B581606E
:101EA00085BD80916E00816080936E0010928100EC
:101EB00080918100826080938100809181008160A7
:101EC0008093810080918000816080938000809168
:101ED000B10084608093B1008091B00081608093F4
:101EE000B00080917A00846080937A0080917A00BB
:101EF000826080937A0080917A00816080937A007A
:101F000080917A00806880937A001092C1001092CC
:101F1000E3021092E20210923303109255030E94E2
:101F20002E048BEC92E09093DF028093DE028CEC27
:101F300092E09093E1028093E0020E942E0480914F
:101F40000304982F98609093030412E01093070401
:101F500010920804EBE3FDE03197F1F788620E94EC
:101F60000E068BE496E40197F1F7809103048062FA
:101F70000E940E0683E592E00197F1F78091030439
:101F800080620E940E068091030480620E940E0609
:101F900084E0809304048CE00E940E0681E00E949D
:101FA0000E068BE39FE10197F1F71093050486E09D
:101FB0000E940E0660E080E00E94DA056FEF88E084
:101FC0000E94DA0560E281E00E94DA056FEF84E0AA
:101FD0000E94DA056FEF83E00E94DA056FEF82E07E
:101FE0000E94DA0568EC84E00E94DA0562E383E08F
:101FF0000E94DA0562E382E00E94DA0513E001E064
:10200000E0911204F091130413861586148612864B
:1020100011861086178216821582148213821092FE
:1020200010041092110462E370E080E090E00E94DE
:102030009802BE01665F7F4F809112049091130455
:102040000E94BE07882309F47AC067E0CE010A9691
:102050000E94350699898913ECCF809110048F5F17
:10206000809310048A85883231F008F04EC08031A8
:1020700011F08232F1F6809111048F5F8093110488
:1020800080910904811128C0809112049091130459
:102090000E94F206BE01665F7F4F8091120490910C
:1020A00013040E94D30640E064EB809112049091E7
:1020B00013040E949F0680911204909113040E94C1
:1020C0004C06F82E80911204909113040E94F2069F
:1020D000F11002C0009309048A85803109F1BE0124
:1020E0006F5F7F4FCE010A960E942A07882359F01E
:1020F0008D819A859B3311F487FD12C08F3391F047
:1021000058F48F31C1F080E00EC08B3309F4B3CFA7
:10211000823409F08ECFAFCF8F3579F08F3799F7B2
:102120008CE001C08AE090910C04981708F081CFF0
:1021300080930C047ECF89E0F6CF8BE0F4CF8091C2
:102140001004811103C0115009F05ACF61E089E0F9
:102150000E94F40060E08AE00E94F40061E08BE0FD
:102160000E94F40060E08CE00E94F40060E086E0F1
:102170000E94F400E0916603F091670382E080839F
:10218000E0916203F09163031082E0916403F091A7
:10219000650380E1808310926E03E0916A03F09101
:1021A0006B0386E08083E0916803F091690380818E
:1021B00080618083E0916803F09169038081886089
:1021C0008083E0916803F091690380818068808357
:1021D000E0916803F091690380818F7D808320E81E
:1021E000322E30EC232E0BE31FE148E9E42E40E0D1
:1021F000F42E55EDC52E50E0D52E61ECA62E60E0F4
:10220000B62E70E0872E70E0972E39822A82CE019A
:1022100001960E94F30560E084E00E94C60060E041
:1022200082E00E94C60081E00E940E06C80101976C
:10223000F1F767EA71E08FEF93E00E94F90987EA0E
:1022400091E00E94E6090E94C60AF7018491F60116
:102250007490F50164906620B1F381110E949D0095
:10226000E62DF0E0EE0FFF1FEF54FF4FA591B49164
:102270008C91782241F30E943E0820E030E040EF4C
:1022800051E40E94F01387FD1FC060E082E00E94CD
:10229000C60060E084E00E94C6000E94C60A6FEAA1
:1022A00071E086E593E00E94F9090E94FB096FEC5A
:1022B00071E08FEF93E00E94F90964E670E080E03E
:1022C00090E00E949802D7CF412C512C32014394C8
:1022D00081E00E940E06C8010197F1F78CED91E0B4
:1022E0000E94E609B301A20186E593E00E94B009CD
:1022F00067E371E086E593E00E94550939823A82EE
:10230000CE0101960E94F3056CED71E08FEF93E032
:102310000E94F909B301A2018FEF93E00E94B00976
:102320000E94C60A0E941D0A8091E8029091E9026B
:10233000A091EA02B091EB020B97A105B1059CF0C8
:1023400061E082E00E94C60083EE91E00E94E6090F
:102350000E94C60A0E94FB0963EE71E08FEF93E0D2
:102360000E94F909E1CF8091E8029091E902A091E1
:10237000EA02B091EB020B97A105B1053CF582EFA3
:1023800091E00E94E6090E94C60A0E94FB0962EFE2
:1023900071E08FEF93E00E94F90960E082E00E9413
:1023A000C60060E084E00E94C60068EE73E080E052
:1023B00090E00E94980282E092E00E94E6090E946A
:1023C0009C0761E084E00E94C600CDCF8091E402CA
:1023D0009091E502A091E602B091E7020B97A1056A
:1023E000B105CCF060E082E00E94C60061E084E0CC
:1023F0000E94C60081E292E00E94E6090E94C60A9D
:102400000E94FB090E941D0A69E172E08FEF93E0D0
:102410000E94F909DBCF8091E4029091E502A0913E
:10242000E602B091E7020B97A105B1052CF588E211
:1024300092E00E94E6090E94C60A0E94FB090E94DF
:102440001D0A68E272E08FEF93E00E94F90960E0F4
:1024500082E00E94C60060E084E00E94C60088E33B
:1024600092E00E94E6090E949C0768EE73E080E01B
:1024700090E00E949802CFCFFFEF4F1A5F0A6F0AD9
:102480007F0A84E0481651046104710409F020CFEA
:102490008FE492E00E94E6090E94FB096FE672E079
:1024A0008FEF93E00E94F90960E773E088E00E94F3
:1024B000250166E970E080E090E00E94980288E0E3
:1024C0000E94CD0266E970E080E090E00E949802F0
:1024D00060E773E088E00E94250166E970E080E033
:1024E00090E00E94980288E00E94CD0266E970E0C8
:1024F00080E090E00E94980260E773E088E00E942C
:10250000250166E970E080E090E00E94980288E092
:102510000E94CD028114910409F477CE0E946303D6
:10252000882309F472CE0E9400006FCE5058BB275A
:10253000AA270E94AE120C94B6130E94A81338F07A
:102540000E94AF1320F039F49F3F19F426F40C9445
:10255000A5130EF4E095E7FB0C949F13E92F0E945E
:10256000C71358F3BA17620773078407950720F05B
:1025700079F4A6F50C94E9130EF4E0950B2EBA2F1E
:10258000A02D0B01B90190010C01CA01A001112479
:10259000FF27591B99F0593F50F4503E68F11A1625
:1025A000F040A22F232F342F4427585FF3CF4695B6
:1025B00037952795A795F0405395C9F77EF41F16D8
:1025C000BA0B620B730B840BBAF09150A1F0FF0FA2
:1025D000BB1F661F771F881FC2F70EC0BA0F621F8E
:1025E000731F841F48F4879577956795B795F7957E
:1025F0009E3F08F0B0CF9395880F08F09927EE0F13
:102600009795879508950E947B1308F481E00895BB
:102610000E940F136894B1110C94EA1308950E945C
:10262000CF1388F09F5798F0B92F9927B751B0F082
:10263000E1F0660F771F881F991F1AF0BA95C9F746
:1026400014C0B13091F00E94E913B1E008950C94E8
:10265000E913672F782F8827B85F39F0B93FCCF39B
:10266000869577956795B395D9F73EF490958095C3
:10267000709561957F4F8F4F9F4F0895E89409C0E3
:1026800097FB3EF490958095709561957F4F8F4FA5
:102690009F4F9923A9F0F92F96E9BB279395F695BB
:1026A000879577956795B795F111F8CFFAF4BB0F39
:1026B00011F460FF1BC06F5F7F4F8F4F9F4F16C09D
:1026C000882311F096E911C0772321F09EE8872F27
:1026D000762F05C0662371F096E8862F70E060E0E3
:1026E0002AF09A95660F771F881FDAF7880F96955C
:1026F000879597F90895990F0008550FAA0BE0E800
:10270000FEEF16161706E807F907C0F012161306B3
:10271000E407F50798F0621B730B840B950B39F4F3
:102720000A2661F0232B242B252B21F408950A2659
:1027300009F4A140A6958FEF811D811D089597F999
:102740009F6780E870E060E008959FEF80EC089557
:1027500000240A9416161706180609060895002480
:102760000A9412161306140605060895092E0394FA
:10277000000C11F4882352F0BB0F40F4BF2B11F46E
:1027800060FF04C06F5F7F4F8F4F9F4F089557FDCD
:102790009058440F551F59F05F3F71F04795880FCF
:1027A00097FB991F61F09F3F79F087950895121666
:1027B00013061406551FF2CF4695F1DF08C0161612
:1027C00017061806991FF1CF8695710561050894C3
:1027D0000895E894BB2766277727CB0197F90895DA
:1027E0000E947B1308F48FEF08950E9408140C9444
:1027F000B6130E94A81338F00E94AF1320F095235F
:1028000011F00C949F130C94A51311240C94EA134B
:102810000E94C71370F3959FC1F3950F50E0551FA9
:10282000629FF001729FBB27F00DB11D639FAA2725
:10283000F00DB11DAA1F649F6627B00DA11D661F74
:10284000829F2227B00DA11D621F739FB00DA11D95
:10285000621F839FA00D611D221F749F3327A00D4F
:10286000611D231F849F600D211D822F762F6A2FEB
:1028700011249F5750409AF0F1F088234AF0EE0F50
:10288000FF1FBB1F661F771F881F91505040A9F77D
:102890009E3F510580F00C949F130C94EA135F3F08
:1028A000E4F3983ED4F3869577956795B795F795B9
:1028B000E7959F5FC1F7FE2B880F911D9695879531
:1028C00097F908950E947B13880B990B089597FB45
:1028D000072E16F4009407D077FD09D00E94BC148F
:1028E00007FC05D03EF4909581959F4F0895709513
:1028F00061957F4F0895A1E21A2EAA1BBB1BFD0113
:102900000DC0AA1FBB1FEE1FFF1FA217B307E407CE
:10291000F50720F0A21BB30BE40BF50B661F771F26
:10292000881F991F1A9469F7609570958095909506
:102930009B01AC01BD01CF010895052E97FB1EF44C
:1029400000940E94B41457FD07D00E947B1407FC2A
:1029500003D04EF40C94B4145095409530952195C5
:102960003F4F4F4F5F4F08959095809570956195BB
:102970007F4F8F4F9F4F0895AA1BBB1B51E107C08C
:10298000AA1FBB1FA617B70710F0A61BB70B881FFF
:10299000991F5A95A9F780959095BC01CD0108958E
:1029A000EE0FFF1F0590F491E02D0994F894FFCFEE
:1029B000FF5E00BC007701000000009903F90226C9
:1029C00003E60357033503490300000000AB057E0F
:1029D0000532065405770564055505000000001F03
:1029E00006F902320606040D0A00202020202020CD
:1029F00020202020202020202020004469737461A2
:102A00006E6365206465206D657375726520656E03
:102A1000206465686F7273206465206C6120706C3F
:102A200061676520283320636D20C3A02033206DAB
:102A3000290044697374616E6365206D65737572F6
:102A40006565203A00636D00543D006E616E00695B
:102A50006E66006F766600417474656E746500542E
:102A6000C2B02074726F7020686175746520706FD9
:102A7000757220666F6E6374696F6E6E6572005456
:102A80002054726F7020686175746500412D52206A
:102A90006E200063686172696F74206176616E6395
:102AA000650063686172696F7420706F696E74206D
:102AB0004200736F6E2063686172696F7420617584
:102AC00020706F696E7420420063686172696F7470
:102AD00020726563756C650063686172696F74204C
:102AE000706F696E74204100736F6E20636861724D
:102AF000696F7420617520706F696E742041007376
:102B00006F6E2063686172696F74207175692061EE
:102B10002066696E6920756E206379636C65006359
:0A2B200079636C652066696E690038
:00000001FF
