:020000040000FA
:100000000C9473000C949B000C949B000C949B002C
:100010000C949B000C949B000C949B000C94360D4C
:100020000C949B000C949B000C949B000C94EA0D88
:100030000C949B000C949B000C949B000C949B00D4
:100040000C94EC0C0C949B000C94B80D0C94920D39
:100050000C949B000C949B000C949B000C949B00B4
:100060000C94A60E0C949B00005EBCE2613FDD8305
:10007000C29C7E20A3FD1F41009D23BE46DB65F888
:100080008C11AF32CA57E974000000002400270029
:100090002A0000000008000201000003040700001D
:1000A00000000000000000000000250028002B00D8
:1000B00002000000002300260029000404040404B8
:1000C0000404040202020202020303030303030105
:1000D00002040810204080010204081020010204DC
:1000E000081020000A1011241FBECFEFD8E0DEBF99
:1000F000CDBF12E0A0E0B1E0E4EDFDE202C005906A
:100100000D92AC37B107D9F724E0ACE7B2E001C0FB
:100110001D92A935B207E1F710E0C3E7D0E004C0B3
:100120002197FE010E94E216C237D107C9F70E944B
:10013000D0100C94E8160C940000CF92DF92EF924E
:10014000FF92DC01A03282E0B807D4F5A53BB105EF
:1001500014F0A4EBB0E04091320428E830E0241B16
:10016000310947FD3395220F331F220F331F6901D9
:10017000330FEE08FF084091330428E532E0241BDA
:10018000310947FD3395220F331F220F331F032EF2
:10019000000C440B550B2C193D094E095F09B7FFA4
:1001A00002C0B0E0A0E00E94A41424EB30E040E0E4
:1001B00050E00E947A14C20ED31EE41EF51ED60132
:1001C000E0913104EC3080F52091320488E890E031
:1001D000821B910927FD9395880F991F880F991FFE
:1001E000A817B90784F02091330488E592E0821BB8
:1001F000910927FD9395880F991F880F991FA817BC
:10020000B9070CF4CD010297880F991F4FB7F894E6
:100210002E2F30E0F901EE0FFF1FE20FF31FEE5F0C
:10022000FB4F928381834FBFFF90EF90DF90CF9081
:100230000895833081F028F4813099F08230A9F05C
:1002400008958730A9F08830C9F08430B1F48091E6
:1002500080008F7D03C0809180008F778093800025
:10026000089584B58F7784BD089584B58F7DFBCFC5
:100270008091B0008F778093B00008958091B00096
:100280008F7DF9CF1F93CF93DF93282F30E0F901B3
:10029000EE56FF4F8491F901E153FF4FD491F901DC
:1002A000E554FF4FC491CC23A9F0162F81110E9471
:1002B0001901EC2FF0E0EE0FFF1FEA55FF4FA5915B
:1002C000B4918FB7F894EC91111108C0D095DE234A
:1002D000DC938FBFDF91CF911F910895DE2BF8CF74
:1002E000CF93DF9390E0FC01E153FF4F24918554BD
:1002F0009F4FFC0184918823D1F090E0880F991FD3
:10030000FC01E857FF4FA591B491FC01EA55FF4F5E
:10031000C591D49161110EC09FB7F8948C91E22FD2
:10032000E0958E238C932881E223E8839FBFDF91A1
:10033000CF9108958FB7F894EC91E22BEC938FBF97
:10034000F6CFCF92DF92EF92FF92CF936B01909115
:100350000201891749F09F3F09F44EC0CF91FF90E9
:10036000EF90DF90CF900895E0EBF0E0C491C7FDEF
:10037000F5CF61E00E947001CC2319F0C23009F082
:10038000E3C0F12CE12C68E478EE81E090E0A70175
:1003900096010E947A14BA01A901415051096109DC
:1003A0007109CC2309F410C1C23009F09EC04F3F3F
:1003B00051056105710509F00CF4C4C064E274EFE5
:1003C00080E090E0A70196010E947A14BA01A90189
:1003D000415051096109710995E08091B100887F10
:1003E000892B8093B100C13009F4C6C0C23009F432
:1003F000D8C0C111B3CF94C080930201E0EBF0E00C
:10040000C491CF3F09F4AACFC13039F148F0C230CE
:1004100009F445C0C7FDA2CF61E00E947001AECFD4
:1004200014BC15BC94B5926094BD95B5916095BD12
:10043000282F30E0F901E554FF4FE491F0E0EE0F92
:10044000FF1FEA55FF4F45915491F901E153FF4FCA
:10045000E491E093FC02C0E08CCF109280001092F7
:10046000810090918100986090938100909181002B
:10047000916090938100282F30E0F901E554FF4FFF
:10048000E491F0E0EE0FFF1FEA55FF4F45915491C4
:10049000F901E153FF4FE491E093FB026ACF109220
:1004A000B0001092B1009091B00092609093B000B3
:1004B0009091B10091609093B100282F30E0F90144
:1004C000E554FF4FE491F0E0EE0FFF1FEA55FF4FB8
:1004D000459154915093FA024093F902F901E15386
:1004E000FF4FE491E093F80244CF4F3F510561057F
:1004F000710541F13CF162E17AE780E090E0A7010B
:1005000096010E947A14BA01A9014150510961096A
:100510007109C11162C094E085B5887F892B85BDC2
:1005200047BD8FEF9FEFDC01809305039093060397
:10053000A0930703B093080380916E0082608093BC
:100540006E000CCF94E049CF960150E040E060E0AF
:1005500072E18AE790E00E947A14BA01A901415041
:10056000510961097109C13009F03DCF80918100C5
:10057000887F816080938100509389004093880038
:100580008FEF9FEFDC018093010390930203A09310
:100590000303B093040380916F00826080936F0027
:1005A000DDCE4093B3008FEF9FEFDC018093FD021F
:1005B0009093FE02A093FF02B0930003809170001D
:1005C000826080937000CACE93E04F3F5105610571
:1005D000710511F00CF08FCF9FCF96E0FECE3FB7A4
:1005E000F8948091F4029091F502A091F602B091F6
:1005F000F70226B5A89B05C02F3F19F00196A11D53
:10060000B11D3FBFBA2FA92F982F8827BC01CD015C
:10061000620F711D811D911D42E0660F771F881FBB
:10062000991F4A95D1F708958F929F92AF92BF92EA
:10063000CF92DF92EF92FF926B017C010E94EF025A
:100640004B015C01C114D104E104F104B9F00E9432
:10065000EF02681979098A099B09683E7340810590
:10066000910580F321E0C21AD108E108F10888EE73
:10067000880E83E0981EA11CB11CE4CFFF90EF9080
:10068000DF90CF90BF90AF909F908F900895089586
:1006900008959091020189130BC0E0EBF0E0E49122
:1006A0009FEF90930201E13049F028F0E23061F0D1
:1006B00060E00C94420110926E00FACF90916F00AE
:1006C0009D7F90936F00F4CF909170009D7F9093E9
:1006D000700091E09093B0009091B100987F946089
:1006E0009093B1001092B300E3CFAF92BF92CF923C
:1006F000DF92EF92FF920F931F93CF93DF936C01E2
:100700007B018B01040F151FEB015E01AE18BF08C2
:10071000C017D10759F06991D601ED91FC91019074
:10072000F081E02DC6010995892B79F7C501DF918C
:10073000CF911F910F91FF90EF90DF90CF90BF90DE
:10074000AF900895FC01538D448D252F30E0842F08
:1007500090E0821B930B541710F0CF9608950197E9
:100760000895FC01918D828D981761F0A28DAE0FD6
:10077000BF2FB11D5D968C91928D9F5F9F73928F5D
:1007800090E008958FEF9FEF0895FC01918D828D89
:10079000981731F0828DE80FF11D858D90E0089556
:1007A0008FEF9FEF0895FC01918D228D892F90E0AE
:1007B000805C9F4F821B91098F739927089589E56B
:1007C00093E00E94D30321E0892B09F420E0822FDB
:1007D000089580E090E0892B29F00E94DF038111C9
:1007E0000C9400000895FC01A48DA80FB92FB11D31
:1007F000A35ABF4F2C91848D90E001968F73992757
:10080000848FA689B7892C93A089B1898C91837034
:1008100080648C93938D848D981306C00288F3892D
:10082000E02D80818F7D80830895EF92FF920F935A
:100830001F93CF93DF93EC0181E0888F9B8D8C8D8C
:1008400098131AC0E889F989808185FF15C09FB780
:10085000F894EE89FF896083E889F9898081837043
:10086000806480839FBF81E090E0DF91CF911F91F2
:100870000F91FF90EF900895F62E0B8D10E00F5F13
:100880001F4F0F731127E02E8C8D8E110CC00FB6E9
:1008900007FCFACFE889F989808185FFF5CFCE0181
:1008A0000E94F303F1CFEB8DEC0FFD2FF11DE35A06
:1008B000FF4FF0829FB7F8940B8FEA89FB89808104
:1008C0008062CFCFCF93DF93EC01888D8823B9F07E
:1008D000AA89BB89E889F9898C9185FD03C080814B
:1008E00086FD0DC00FB607FCF7CF8C9185FFF2CFC8
:1008F000808185FFEDCFCE010E94F303E9CFDF9128
:10090000CF91089508952091BD02260F3327331FFC
:1009100021323105ECF420912F03FC0190E080E0BE
:10092000243069F082E00895A091BD022191AC01CC
:1009300043565D4FA40FB52FB11D2C93019686171A
:1009400098F38091BD02680F6093BD0280E0089526
:1009500081E0089510922F0381E080932E0310927E
:10096000090361E082E10E94420161E083E10E94AB
:100970004201E9EBF0E080818E7F808380818D7F72
:10098000808388E48093B80085E48093BC00089558
:10099000CF93DF9391E090939C028823B9F0C091AC
:1009A000B800D091BA008091BC008A7B8093BC00D3
:1009B00060E082E10E94420160E083E10E94420126
:1009C0000E94AA04D093BA00C093B800DF91CF91DF
:1009D0000895CF92DF92EF92FF920F931F93CF93E0
:1009E000DF93D091580381E0D13208F09CC0C091D0
:1009F00057030E94EF026B017C0180912F0381114C
:100A00006CC082E080932F0381E080932E038FEFF0
:100A100080932D0310922C03D0932B03A7E3B3E014
:100A2000EBE0F3E080E0D8138DC010920A038091D0
:100A30000A03CC0FC82BC0930A03809109038130AD
:100A400009F084C0109209030E94EF026B017C013F
:100A500080910A038093BB0080913103909132030F
:100A6000A0913303B0913403892B8A2B8B2BA1F0F7
:100A70000E94EF0200913103109132032091330361
:100A8000309134036C197D098E099F0906171707E9
:100A90002807390708F442C08091BC0083FDD8CFF5
:100AA00085EC8093BC000E94EF026B017C01809179
:100AB0002F03823009F44CC080912D038F3F09F43D
:100AC00069C080912D03803209F466C080912D03A6
:100AD000803309F463C084E026C080913103909193
:100AE0003203A0913303B0913403892B8A2B8B2BD3
:100AF00009F483CF0E94EF02009131031091320379
:100B000020913303309134036C197D098E099F09BC
:100B1000061717072807390708F06FCF80913003B1
:100B20000E94C80485E01092360310925803109278
:100B30003503DF91CF911F910F91FF90EF90DF90E0
:100B4000CF9008959D9191938F5F6DCF85EEA9CF42
:100B50008091310390913203A0913303B09134031B
:100B6000892B8A2B8B2B09F4A2CF0E94EF020091D4
:100B700031031091320320913303309134036C1907
:100B80007D098E099F09061717072807390708F0FE
:100B90008ECFC4CF80E0C7CF82E0C5CF83E0C3CF84
:100BA0000895E091E6028091E502E81730F4F0E064
:100BB000E458FD4F808190E008958FEF9FEF0895F6
:100BC0009091E6028091E5022FEF3FEF981748F4ED
:100BD000E92FF0E0E458FD4F208130E09F5F9093D3
:100BE000E602C90108958091E5029091E602891B11
:100BF000990B0895CF92DF92EF92FF920F931F937C
:100C0000CF93DF937C01CB018A012091350322230E
:100C100089F0EB016B01C40ED51ECC15DD0569F022
:100C20006991D701ED91FC910190F081E02DC70110
:100C30000995F3CF642F0E948304C801DF91CF91FF
:100C40001F910F91FF90EF90DF90CF900895CF9379
:100C5000DF931F92CDB7DEB769832091350322233E
:100C6000F9F020915803203258F021E030E0FC01E7
:100C70003383228390E080E00F90DF91CF9108953D
:100C800080913603E82FF0E0E95CFC4F9981908376
:100C90008F5F809336038093580381E090E0ECCF20
:100CA00061E0CE0101960E948304F7CFCF93C62F57
:100CB00091E09093350392E6909357031092360398
:100CC00010925803682F86EF93E00E9427066C2F3E
:100CD00086EF93E00E942706CF910C94E904CF930E
:100CE000DF93EC0181E0809335038EE3809357031B
:100CF0001092360310925803688186EF93E00E94A9
:100D00002706698186EF93E00E942706DF91CF9145
:100D10000C94E904CF93DF9300D0CDB7DEB790E811
:100D200099838A83CE0101960E946F060F900F90DF
:100D3000DF91CF910895CF93DF9300D0CDB7DEB789
:100D400080E489836A83CE0101960E946F0681E068
:100D500090E00F900F90DF91CF91089590E080E0A8
:100D60000895DC0180E0615090F09D919827E92F73
:100D7000EF70F0E0E859FF4F2491E92FE295EF7012
:100D8000F0E0E858FF4FE491822F8E27ECCF0895D2
:100D9000DC012C911196ED91FC91F8948181822BCC
:100DA00081839281322F30959323928387E090E064
:100DB0000197F1F781818323818383E290E001979A
:100DC000F1F790817894EFECF0E03197F1F792230E
:100DD00081E009F480E00895FC0190810180F281B6
:100DE000E02D292F209560FF14C0F8948281822382
:100DF00082838181892B8183A3E2B0E01197F1F78F
:100E00008281982B9283789487ED90E00197F1F797
:100E10000895F8948281822382838181892B818342
:100E2000AFEFB0E01197F1F78281982B928378941D
:100E30008FE090E0EBCFDF92EF92FF920F931F9342
:100E4000CF93DF93EC01D62EE42E08E010E0FF24D0
:100E5000F39461E08D2D8F2109F460E0CE010E94B2
:100E6000EC06FF0C01501109A1F7E11010C0F89435
:100E7000E981FA8191818881809589238183E98143
:100E8000FA81928188818095892382837894DF9189
:100E9000CF911F910F91FF90EF90DF900895EF9207
:100EA000FF920F931F93CF93DF938C017B0140E060
:100EB00065E50E941B07E70188E0E80EF11C6991D7
:100EC00040E0C8010E941B07CE15DF05C1F7DF9186
:100ED000CF911F910F91FF90EF900895FC019081A9
:100EE0000180F281E02DF8948181292F20958223C1
:100EF000818378943DE743E050E0315029F1DA01F5
:100F00001197F1F780818923C1F3F89482818223BC
:100F100082838181892B81837894ABE7B7E0119735
:100F2000F1F7F894818182238183A3E1B1E01197E5
:100F3000F1F78081982381E009F080E07894E3E67E
:100F4000F6E03197F1F7089580E008956F927F926F
:100F50008F929F92AF92BF92CF92DF92EF92FF92C9
:100F60000F931F93CF93DF938C01EB0180913D048E
:100F700090913E040E946E07882309F43FC0B80197
:100F800080913D0490913E040E944F0740E06EEB3B
:100F900080913D0490913E040E941B077E016E01EA
:100FA00089E0C80ED11C8E01A0903D04B0903E0493
:100FB00088E0882E912C712C66246394C5010E94D0
:100FC000C80681117628660CE1E08E1A9108B1F707
:100FD000F80171928F01CE16DF0631F780913D0442
:100FE00090913E040E946E07813041F4F701819197
:100FF0007F01811105C0E017F107C1F790E008C03B
:1010000068E0CE010E94B10691E028852813F6CF52
:10101000892FDF91CF911F910F91FF90EF90DF907B
:10102000CF90BF90AF909F908F907F906F900895DA
:10103000CF93DF938091ED029091EE028130910584
:10104000D1F41092EC021092EB02C091EB02D0911D
:10105000EC02C53BD10564F5CE010E949D006FE016
:1010600070E080E090E00E9414032196D093EC029F
:10107000C093EB02EACF0297D9F484EB90E090930F
:10108000EC028093EB02C091EB02D091EC02D7FD11
:101090000FC0CE010E949D006FE070E080E090E004
:1010A0000E9414032197D093EC02C093EB02EBCF84
:1010B000DF91CF91089568EB71E087E00E94A10174
:1010C00066E970E080E090E00E94140387E00E94EF
:1010D000490366E970E080E090E00E94140368EB49
:1010E00071E087E00E94A10166E970E080E090E095
:1010F0000E94140387E00C944903BF92CF92DF92C1
:10110000EF92FF920F931F93CF93DF93EC01B62ED4
:10111000C72E8D85811105C0CE010E946E078111F9
:101120000EC01B861D861C8680E0DF91CF911F912B
:101130000F91FF90EF90DF90CF90BF90089540E027
:1011400060EFCE010E941B0701E0E12CD12C11E0E1
:10115000CE010E94C806F82ECE010E94C80691E07A
:10116000F91218C0813099F51134D8F2DB86D1100C
:1011700002C081E08D878B81882399F22396EB2D25
:10118000FC2DCF01089629912193E817F907D9F78B
:1011900081E0CBCFEE2DF0E0F8120FC08B85181751
:1011A000A0F4DE01AE0FBF1F13968C91802379F45B
:1011B000F12C193008F41C87D12EEC0FFD1F838110
:1011C000902F9095892383830AC08113F1CFFE016C
:1011D000EE0DF11D8381802B8383FF24F3946F2D0B
:1011E000CE010E94EC061F5F000F11F4E39401E0B2
:1011F00087E08E1508F0ACCFB7CFCF92DF92EF9299
:10120000FF920F931F93CF93DF93CDB7DEB7619714
:101210000FB6F894DEBF0FBECDBF80913B048111A5
:1012200013C060E070E08EEF92EC61960FB6F89418
:10123000DEBF0FBECDBFDF91CF911F910F91FF9009
:10124000EF90DF90CF900895E0913D04F0913E043F
:1012500013861586148612861186108617821682CA
:10126000158214821382BE01665F7F4F80913D0418
:1012700090913E040E947D08882399F267E0CE0198
:101280000A960E94B10699898913CBCFBE016F5F80
:101290007F4FCE010A960E94A607882311F29A81F9
:1012A000C12CD12C760197FF06C0C12CD12CF8EFB0
:1012B000EF2EFF24FA944A8589814B33E1F52D8185
:1012C00027FF39C080FDADCF082F10E030E020E0CF
:1012D00073E0000F111F221F331F7A95D1F7007E94
:1012E000177022273327892F90E0B0E0A0E0EBE0D1
:1012F000880F991FAA1FBB1FEA95D1F7802B912B4E
:10130000A22BB32B8C019D010C291D292E293F29CD
:10131000013854EE15075FEF250735070CF481CF30
:10132000C901B8010E94871520E030E040E05CE38D
:101330000E943C167ACF092F10E0102F0027110FC2
:10134000110F110F28E0829FB0011124062B172BDB
:10135000012E000C220B330B0C291D292E293F29AD
:10136000483269F4803531F4953091F68F818C30B4
:1013700079F657CF8F3F61F6973051F652CF403113
:1013800039F66885662321F270E08F81AB01481B36
:101390005109CA019695982F8827979587950E949D
:1013A000BA16CB01770FAA0BBB0B53E0000F111F2E
:1013B000221F331F5A95D1F7007827703327005228
:1013C000110921093109800F911FA21FB31F970135
:1013D0008601082B192B2A2B3B2B9ACFFB0101905E
:1013E0000020E9F73197AF01461B570BDC01ED9167
:1013F000FC910280F381E02D09948F929F92AF922D
:10140000BF92EF92FF920F931F93CF93DF93CDB7CD
:10141000DEB7A1970FB6F894DEBF0FBECDBF7C013B
:10142000FA01CB0119A2223008F42AE08E010F5DE7
:101430001F4F822E912CB12CA12CBF01A50194012C
:101440000E94AC14F901CA016A300CF5605DD80144
:101450006E938D01232B242B252B79F790E080E0D0
:10146000109721F0BD01C7010E94EE09A1960FB6A9
:10147000F894DEBF0FBECDBFDF91CF911F910F91CA
:10148000FF90EF90BF90AF909F908F900895695C10
:10149000DECFCF92DF92EF92FF920F931F93CF9305
:1014A000DF9377FF21C06A017B01EC01E881F981BC
:1014B0000190F081E02D6DE209958C0144275527BC
:1014C000BA014C195D096E097F092AE0CE010E941C
:1014D000FD09800F911FDF91CF911F910F91FF9018
:1014E000EF90DF90CF9008952AE0DF91CF911F9188
:1014F0000F91FF90EF90DF90CF900C94FD09CF9368
:10150000DF93BC0189E593E00E94EE09EC0169E3F9
:1015100071E089E593E00E94EE098C0F9D1FDF9139
:10152000CF9108950C94EE090F931F93CF93DF93FF
:1015300000D0CDB7DEB700E8098310EC1A83CE01E6
:1015400001960E946F066CE371E087E294E00E94CE
:10155000920A09831A83CE0101960E946F060F90AA
:101560000F90DF91CF911F910F9108958091ED021F
:101570009091EE028130910511F5809100019091DA
:10158000010183309105A4F461E082E00E944201F0
:101590008DE491E00E947F0A6DE471E087E294E0BF
:1015A0000E94920A6AE070E080E090E00C941403DC
:1015B0000397A9F41092EE021092ED02089502979B
:1015C00071F461E084E00E9442018CE591E00E94A8
:1015D0007F0A6CE571E087E294E00C94920A08952A
:1015E0008F929F92AF92BF92CF92DF92EF92FF9233
:1015F000CF93DF9300D0CDB7DEB780913D049091BB
:101600003E040E946E0740E06CEC80913D04909196
:101610003E040E941B074091340464E480913D0421
:1016200090913E040E941B078FB7F894C090F0027F
:10163000D090F102E090F202F090F3028FBF80911F
:101640003804882329F180913904882309F46EC075
:101650008091340481116AC080913D0490913E04D0
:101660000E94C8068130A1F02FB7F8948091F00253
:101670009091F102A091F202B091F3022FBF8C1968
:101680009D09AE09BF098E3E9240A105B10520F328
:101690000E94FD086B017C0180E8898389E88A83C8
:1016A000CE0101960E946F066BE671E087E294E03E
:1016B0000E94920AA7019601C701B6010E94A916CD
:1016C0006EE671E081111BC046015701E894B7F83E
:1016D0002FEF3FEF4FE75FE7C501B4010E94A91666
:1016E00081114DC02FEF3FEF4FE75FE7C501B40118
:1016F0000E944A1518160CF042C062E771E087E2BA
:1017000094E00E94EE0961E070E080E090E00E94C9
:1017100014030F900F90DF91CF91FF90EF90DF9027
:10172000CF90BF90AF909F908F900895E091370435
:10173000E9508EEE92E0E33038F4F0E0EE0FFF1F58
:10174000ED5FFE4F808191816C01F12CE12C809145
:101750003504882329F060E0809136040E9442011C
:10176000C701B6010E94140380913504882309F44F
:101770008FCF61E0809136040E94420189CF2FEF24
:101780003FEF4FE75FE4C701B6010E943716181616
:101790001CF466E771E0B3CF2FEF3FEF4FE75FEC4C
:1017A000C701B6010E944A1587FDF3CF20E030E063
:1017B000A901C701B6010E944A1587FF09C06DE261
:1017C00087E294E00E949B06F7FAF094F7F8F09411
:1017D0002AE037ED43EA5BE3C701B6010E94DE145D
:1017E0004B015C010E9456156B017C010E9485151E
:1017F0009B01AC01C501B4010E94DD144B015C01E9
:101800002AE0B701A60187E294E00E94FD096EE29A
:1018100087E294E00E949B0620E030E040E251E441
:10182000C501B4010E943C164B015C010E94561593
:101830006B01F12CE12C2AE0B701A60187E294E0CC
:101840000E94FD09C701B6010E9485159B01AC01EC
:10185000C501B4010E94DD1420E030E040E251E413
:101860000E943C160E945615AB0170E060E02AE031
:1018700087E294E00E94FD0946CF85ED8093BC008D
:101880008091310390913203A0913303B0913403DE
:101890000796A11DB11D23E0B695A795979587954D
:1018A0002A95D1F72091BC0024FD03C010922F038C
:1018B0000895409131035091320360913303709148
:1018C0003403452B462B472B69F30097A105B1053F
:1018D00041F02AE22A95F1F700C00197A109B10968
:1018E000E1CF809130030C94C8040F931F9360E004
:1018F00089E00E94420183E090E00197F1F761E006
:1019000089E00E94420183E290E00197F1F760E0F4
:1019100089E00E944201E9EDF0E06491E5ECF0E03D
:10192000E491F0E0EE0FFF1FEF54FF4F859194918B
:1019300000E412E42FE030E0462F0E94C50F61154D
:1019400071058105910529F06F5F7F4F8F4F9F4F84
:101950009F700E94871526E933E44BE05DE30E9407
:101960003C1620E030E040E05FE30E943C160E941D
:101970004F156093E7027093E8028093E902909319
:10198000EA02645071098109910968327140810548
:10199000910520F08AE791E00E947F0A60EB71E0F8
:1019A00089E593E00E94920A4091E7025091E80293
:1019B0006091E9027091EA0289E593E00E94490A88
:1019C00083EC91E00E947F0A68EE73E080E090E093
:1019D0001F910F910C9414031F920F920FB60F9248
:1019E00011242F933F938F939F93AF93BF93809135
:1019F000F0029091F102A091F202B091F3023091C5
:101A0000EF0223E0230F2D3758F50196A11DB11DDC
:101A10002093EF028093F0029093F102A093F202E0
:101A2000B093F3028091F4029091F502A091F60236
:101A3000B091F7020196A11DB11D8093F40290931D
:101A4000F502A093F602B093F702BF91AF919F9178
:101A50008F913F912F910F900FBE0F901F9018956F
:101A600026E8230F0296A11DB11DD2CF1F920F921F
:101A70000FB60F9211242F933F934F935F936F9361
:101A80007F938F939F93AF93BF93EF93FF93809137
:101A9000FD029091FE02A091FF02B0910003892BFC
:101AA0008A2B8B2BD1F19091F802E091F902F09101
:101AB000FA028081892780838091FD029091FE0245
:101AC000A091FF02B0910003181619061A061B0612
:101AD0009CF48091FD029091FE02A091FF02B091D2
:101AE00000030197A109B1098093FD029093FE02C2
:101AF000A093FF02B0930003FF91EF91BF91AF91CC
:101B00009F918F917F916F915F914F913F912F9115
:101B10000F900FBE0F901F901895809102010E94A8
:101B20004903EACF1F920F920FB60F9211242F9301
:101B30003F934F935F936F937F938F939F93AF9355
:101B4000BF93EF93FF9389E593E00E94F303FF9126
:101B5000EF91BF91AF919F918F917F916F915F9125
:101B60004F913F912F910F900FBE0F901F9018959E
:101B70001F920F920FB60F9211242F938F939F9362
:101B8000EF93FF93E0916903F0916A038081E09104
:101B90006F03F091700382FD1BC0908180917203EE
:101BA0008F5F8F7320917303821741F0E09172036E
:101BB000F0E0E75AFC4F958F80937203FF91EF910D
:101BC0009F918F912F910F900FBE0F901F9018959E
:101BD0008081F4CF1F920F920FB60F9211242F9392
:101BE0003F934F935F936F937F938F939F93AF93A5
:101BF000BF93CF93DF93EF93FF938091E002C09167
:101C00002604D0E087FF24C0109285001092840043
:101C10008091E0028F5F8093E0028091E002082EC5
:101C2000000C990B8C179D0724F48091E0028C30F6
:101C3000C4F18091840090918500049680349C4981
:101C400008F47AC08091840090918500049676C053
:101C50008091E002082E000C990B8C179D07C4F6AA
:101C6000E091E0028E2FEE0F990BFC01EE0FFF1FAB
:101C7000E80FF91FEE5FFB4F808186FFC9CFE0912F
:101C8000E0028E2FEE0F990BFC01EE0FFF1FE80F05
:101C9000F91FEE5FFB4F808160E08F730E9442016D
:101CA000B7CF2091840030918500E091E0028E2F23
:101CB000EE0F990BFC01EE0FFF1FE80FF91FEE5F0F
:101CC000FB4F81819281820F931F909389008093B3
:101CD0008800E091E0028E2FEE0F990BFC01EE0FD1
:101CE000FF1FE80FF91FEE5FFB4F808186FF11C0D9
:101CF000E091E0028E2FEE0F990BFC01EE0FFF1F1B
:101D0000E80FF91FEE5FFB4F808161E08F730E9447
:101D10004201FF91EF91DF91CF91BF91AF919F91E0
:101D20008F917F916F915F914F913F912F910F9084
:101D30000FBE0F901F90189580E49CE99093890046
:101D4000809388008FEF8093E002E3CF1F920F9281
:101D50000FB60F9211242F933F934F935F936F937E
:101D60007F938F939F93AF93BF93EF93FF93809154
:101D7000B900887F803609F44AC0F0F5883209F44A
:101D8000A7C018F5803109F49BC0B8F4882309F482
:101D9000F9C0883009F494C0FF91EF91BF91AF91E1
:101DA0009F918F917F916F915F914F913F912F9173
:101DB0000F900FBE0F901F901895883109F488C0BE
:101DC000803251F780932D0314C0803409F49DC0F4
:101DD00040F48033B9F38833F9F680932D0385EC12
:101DE000B0C0803509F485C0883509F496C08834C0
:101DF00099F60E943D0CD0CF883909F48CC038F593
:101E0000883729F050F4883611F0803729F683E0BE
:101E100080932F031092DF0257C0883809F47BC0EB
:101E2000803919F0803809F0B7CF8091DF02803215
:101E300008F071C0E091DF0281E08E0F8093DF0235
:101E40008091BB00F0E0E154FD4F80833DC0803BBA
:101E500039F0E0F4803A09F479C0883A09F09CCF6F
:101E600084E080932F031092BE021092BD02E09195
:101E7000E102F091E20209958091BD0281110FC04B
:101E800081E08093BD0210929D0209C0803C09F45C
:101E9000A6CF883C09F4A3CF883B09F07DCFE09121
:101EA000BE0281E08E0F8093BE02F0E0E356FD4F4C
:101EB00080818093BB009091BE028091BD0229C0B9
:101EC00080910A038093BB0085EC8093BC0064CFB3
:101ED00090912C0380912B03981758F5E0912C03D7
:101EE00081E08E0F80932C03F0E0E55FFC4F808152
:101EF000E9CFE0912C0381E08E0F80932C03809139
:101F0000BB00F0E0E55FFC4F808390912C03809153
:101F10002B039817C8F285E8D8CFE0912C0381E015
:101F20008E0F80932C038091BB00F0E0E55FFC4FA7
:101F3000808380912E0381115CCF81E0809309031F
:101F400084EA8093BC0010922F0326CF85EC809307
:101F5000BC0010922F038091DF02803230F4E091B8
:101F6000DF02F0E0E154FD4F10826091DF0270E08B
:101F7000E091E302F091E4028FEB92E00995109278
:101F8000DF020ACF10922D0334CFCF92DF92EF926F
:101F9000FF920F931F93E82FF92F05C001501109ED
:101FA0002109310961F1908196239417B9F305C095
:101FB000015011092109310911F1908196239413DF
:101FC000F7CFC12CD12CE12CF12C0AC08FEFC81A0D
:101FD000D80AE80AF80A0C151D052E053F0579F008
:101FE00080818623841791F36C2D7D2D8E2D9F2D5E
:101FF0001F910F91FF90EF90DF90CF90089560E0D8
:1020000070E080E090E01F910F91FF90EF90DF90E3
:10201000CF90089510925C0310925B0388EE93E0DA
:10202000A0E0B0E080935D0390935E03A0935F0314
:10203000B09360032DE031E030935A0320935903AD
:1020400025EC30E0309366032093650324EC30E008
:10205000309368032093670320EC30E030936A03E9
:102060002093690321EC30E030936C0320936B03E1
:1020700022EC30E030936E0320936D0326EC30E0C9
:102080003093700320936F031092720310927303C6
:1020900010927403109275031092F9031092F803D2
:1020A0008093FA039093FB03A093FC03B093FD038A
:1020B0008FE191E09093F7038093F60360E087E06F
:1020C0000E947001E6EDF0E0E491E0934B04E2EC55
:1020D000F0E0E491F0E0EE0FFF1FEF54FF4F859129
:1020E000949190934D0480934C0410925604109256
:1020F00058041092570410925504109254041092F0
:1021000053041092520410925104109250041092F1
:102110004F0410924E0410923B0410923C04109213
:10212000340489E08093370481E0809338048093FD
:10213000390480933A041092350410924A041092A4
:1021400049049FEF90934704109248042BE434E035
:1021500030933E0420933D04809126048C30E8F4B3
:1021600091E0980F909326048093310490E0FC0155
:10217000EE0FFF1FE80FF91FEE5FFB4F88EB9BE0B0
:102180009283818310922A041092290481E391E0C2
:102190009093280480932704089590933104F2CFFC
:1021A000CF93DF93CDB7DEB762970FB6F894DEBF5B
:1021B0000FBECDBF789484B5826084BD84B5816044
:1021C00084BD85B5826085BD85B5816085BD809102
:1021D0006E00816080936E0010928100809181007A
:1021E0008260809381008091810081608093810072
:1021F000809180008160809380008091B100846034
:102200008093B1008091B00081608093B000809194
:102210007A00846080937A0080917A008260809353
:102220007A0080917A00816080937A0080917A00B0
:10223000806880937A001092C1001092E60210929A
:10224000E50210923603109258030E94AA0487E414
:1022500093E09093E2028093E10288E493E090930C
:10226000E4028093E3020E94AA0480912B04982F39
:10227000986090932B0412E010932F041092300476
:10228000EBE3FDE03197F1F788620E948A068BE468
:1022900096E40197F1F780912B0480620E948A06F0
:1022A00083E592E00197F1F780912B0480620E9410
:1022B0008A0680912B0480620E948A0684E08093C3
:1022C0002C048CE00E948A0681E00E948A068BE33F
:1022D0009FE10197F1F710932D0486E00E948A0692
:1022E00060E080E00E9456066FEF88E00E9456068C
:1022F00060E281E00E9456066FEF84E00E9456067D
:102300006FEF83E00E9456066FEF82E00E94560650
:1023100068EC84E00E94560662E383E00E94560661
:1023200062E382E00E94560613E001E0E0913D0482
:10233000F0913E0413861586148612861186108647
:102340001782168215821482138210923B04109217
:102350003C0462E370E080E090E00E941403BE0160
:10236000665F7F4F80913D0490913E040E947D08FE
:10237000882309F47AC067E0CE010A960E94B1066C
:1023800099898913ECCF80913B048F5F80933B0444
:102390008A85883231F008F04EC0803111F08232E7
:1023A000F1F680913C048F5F80933C04809134046B
:1023B000811128C080913D0490913E040E946E07D7
:1023C000BE01665F7F4F80913D0490913E040E9464
:1023D0004F0740E064EB80913D0490913E040E94E1
:1023E0001B0780913D0490913E040E94C806F82E80
:1023F00080913D0490913E040E946E07F11002C04E
:10240000009334048A85803109F1BE016F5F7F4FEC
:10241000CE010A960E94A607882359F08D819A85DD
:102420009B3311F487FD12C08F3391F058F48F3134
:10243000C1F080E00EC08B3309F4B3CF823409F0D1
:102440008ECFAFCF8F3579F08F3799F78CE001C001
:102450008AE090913704981708F081CF8093370471
:102460007ECF89E0F6CF8BE0F4CF80913B048111E1
:1024700003C0115009F05ACF809131048C3008F01C
:1024800051C061E083E00E94700180913104282FE7
:1024900030E0F901EE0FFF1FE20FF31FEE5FFB4F7D
:1024A0009081907C93609083109232041092330458
:1024B0002CE0622F0E94AE16829FB001112430E002
:1024C00020E0AB01420F531FFA01EE0FFF1FE40F94
:1024D000F51FEE5FFB4F908196FD16C02F5F3F4FBB
:1024E0002C30310571F781110FC01092800082E00D
:1024F000809381001092850010928400B19A80919F
:102500006F00826080936F00E09131048E2F90E025
:10251000FC01EE0FFF1FE80FF91FEE5FFB4F8081FC
:102520008064808361E089E00E94700160E08AE05D
:102530000E94700160E086E00E947001E0916903F2
:10254000F0916A0382E08083E0916503F091660375
:102550001082E0916703F091680380E1808310921C
:102560007103E0916D03F0916E0386E08083E0914A
:102570006B03F0916C03808180618083E0916B0339
:10258000F0916C03808188608083E0916B03F0910F
:102590006C03808180688083E0916B03F0916C0311
:1025A00080818F7D80830BE31FE140E8242EEE24A1
:1025B000E394F12CCC24C394D12C72E0A72EB12C3F
:1025C00028E9422E20E0522E35ED632E30E0732EA6
:1025D000298280EC8A83CE0101960E946F0660E01A
:1025E00084E00E94420160E082E00E94420181E0BA
:1025F0000E948A06C8010197F1F766EC71E087E254
:1026000094E00E94920A86EC91E00E947F0A0E9468
:10261000F00AF0920101E0920001F092EE02E092E5
:10262000ED021092EC021092EB0290E080E00E942A
:102630009D0091EC892E90E0992EF2018491F30196
:10264000F491FA8BF4013490332079F081110E94D7
:102650001901E32DF0E0EE0FFF1FEF54FF4FA5919E
:10266000B4918C91FA898F2319F40E94F00AE5CF76
:102670000E94FD0820E030E040EF51E40E94371650
:1026800087FD1FC060E082E00E94420160E084E0BC
:102690000E9442010E94F00A6EEC71E089E593E02D
:1026A0000E94920A0E94940A6EEE71E087E294E022
:1026B0000E94920A64E670E080E090E00E941403B9
:1026C000D7CF809100019091010104970CF0C3C015
:1026D00068EE73E080E090E00E94140361E082E025
:1026E0000E9442010E94F00A0E94940A0E94750C06
:1026F0008091E7029091E802A091E902B091EA028C
:102700000B97A105B105ECF68091ED029091EE02D8
:10271000019759F58BEF91E00E947F0A0E94F00A21
:102720000E94940A6BEF71E087E294E00E94920AA3
:1027300060E082E00E94420160E084E00E94420189
:102740008BE092E00E947F0A0E945B08B092EE024A
:10275000A092ED020E94B60A0E94180868EE73E08B
:1027600080E090E00E941403C1CF8091E702909135
:10277000E802A091E902B091EA020B97A105B10528
:102780000CF09FCF8091ED029091EE02029709F03C
:1027900098CF82E292E00E947F0A62E272E087E2D2
:1027A00094E00E94920A60E082E00E94420160E0B0
:1027B00084E00E94420182E392E00E947F0A81E06D
:1027C0000E948A06C8010197F1F789E492E00E940D
:1027D0007F0A4091000150910101052E000C660B0B
:1027E000770B89E593E00E94490A69E371E089E586
:1027F00093E00E94EE0929822A82CE0101960E946E
:102800006F0669E472E087E294E00E94920A4091C8
:10281000000150910101052E000C660B770B87E239
:1028200094E00E94490A8091000190910101019673
:102830009093010180930001D092EE02C092ED02CC
:102840000E9418080E94B60A0E94F00A0E945B08C3
:102850000E94750C8ACF80E592E00E947F0A0E9458
:10286000940A60E772E087E294E00E94920A60E7CF
:1028700073E088E00E94A10166E970E080E090E0EA
:102880000E94140388E00E94490366E970E080E03A
:1028900090E00E94140360E773E088E00E94A101C9
:1028A00066E970E080E090E00E94140388E00E94F6
:1028B000490366E970E080E090E00E94140360E75D
:1028C00073E088E00E94A10166E970E080E090E09A
:1028D0000E94140388E00E94490380E090E0892B65
:1028E00009F476CE0E94DF03882309F469CE0E94A2
:1028F000000066CE052E97FB1EF400940E949114F2
:1029000057FD07D00E94AC1407FC03D04EF40C9482
:10291000911450954095309521953F4F4F4F5F4F03
:10292000089590958095709561957F4F8F4F9F4F3B
:1029300008950E94CE14A59F900DB49F900DA49F62
:10294000800D911D11240895B7FF0C9499140E94D5
:102950009914821B930B0895A1E21A2EAA1BBB1B8C
:10296000FD010DC0AA1FBB1FEE1FFF1FA217B3075B
:10297000E407F50720F0A21BB30BE40BF50B661F71
:10298000771F881F991F1A9469F760957095809535
:1029900090959B01AC01BD01CF010895A29FB001AC
:1029A000B39FC001A39F700D811D1124911DB29F83
:1029B000700D811D1124911D08955058BB27AA2721
:1029C0000E94F5140C94FD150E94EF1538F00E943A
:1029D000F61520F039F49F3F19F426F40C94EC1509
:1029E0000EF4E095E7FB0C94E615E92F0E940E1615
:1029F00058F3BA17620773078407950720F079F434
:102A0000A6F50C9430160EF4E0950B2EBA2FA02DDF
:102A10000B01B90190010C01CA01A0011124FF278B
:102A2000591B99F0593F50F4503E68F11A16F04086
:102A3000A22F232F342F4427585FF3CF4695379585
:102A40002795A795F0405395C9F77EF41F16BA0B4A
:102A5000620B730B840BBAF09150A1F0FF0FBB1FF8
:102A6000661F771F881FC2F70EC0BA0F621F731F41
:102A7000841F48F4879577956795B795F7959E3F9E
:102A800008F0B0CF9395880F08F09927EE0F97952F
:102A9000879508950E94C21508F481E008950E9468
:102AA00056156894B1110C94311608950E941616AB
:102AB00088F09F5798F0B92F9927B751B0F0E1F0FF
:102AC000660F771F881F991F1AF0BA95C9F714C0AF
:102AD000B13091F00E943016B1E008950C94301698
:102AE000672F782F8827B85F39F0B93FCCF38695E8
:102AF00077956795B395D9F73EF490958095709545
:102B000061957F4F8F4F9F4F0895E89409C097FBC1
:102B10003EF490958095709561957F4F8F4F9F4FB4
:102B20009923A9F0F92F96E9BB279395F6958795F8
:102B300077956795B795F111F8CFFAF4BB0F11F4BB
:102B400060FF1BC06F5F7F4F8F4F9F4F16C0882362
:102B500011F096E911C0772321F09EE8872F762F98
:102B600005C0662371F096E8862F70E060E02AF0D9
:102B70009A95660F771F881FDAF7880F96958795C5
:102B800097F90895990F0008550FAA0BE0E8FEEF9A
:102B900016161706E807F907C0F012161306E40721
:102BA000F50798F0621B730B840B950B39F40A261A
:102BB00061F0232B242B252B21F408950A2609F4F8
:102BC000A140A6958FEF811D811D089597F99F67FC
:102BD00080E870E060E008959FEF80EC08950024A5
:102BE0000A941616170618060906089500240A9472
:102BF00012161306140605060895092E0394000CF8
:102C000011F4882352F0BB0F40F4BF2B11F460FF86
:102C100004C06F5F7F4F8F4F9F4F089557FD9058AF
:102C2000440F551F59F05F3F71F04795880F97FB90
:102C3000991F61F09F3F79F087950895121613064A
:102C40001406551FF2CF4695F1DF08C01616170679
:102C50001806991FF1CF86957105610508940895AE
:102C6000E894BB2766277727CB0197F908950E9440
:102C7000C21508F48FEF08950E944F160C94FD15AD
:102C80000E94EF1538F00E94F61520F0952311F000
:102C90000C94E6150C94EC1511240C9431160E943A
:102CA0000E1670F3959FC1F3950F50E0551F629F6C
:102CB000F001729FBB27F00DB11D639FAA27F00D95
:102CC000B11DAA1F649F6627B00DA11D661F829FBC
:102CD0002227B00DA11D621F739FB00DA11D621FA1
:102CE000839FA00D611D221F749F3327A00D611DBE
:102CF000231F849F600D211D822F762F6A2F1124A0
:102D00009F5750409AF0F1F088234AF0EE0FFF1FD2
:102D1000BB1F661F771F881F91505040A9F79E3F29
:102D2000510580F00C94E6150C9431165F3FE4F3E6
:102D3000983ED4F3869577956795B795F795E7957F
:102D40009F5FC1F7FE2B880F911D9695879597F988
:102D500008950E94C215880B990B0895991B79E07C
:102D600004C0991F961708F0961B881F7A95C9F71B
:102D70008095089597FB072E16F4009407D077FDF1
:102D800009D00E94CE1607FC05D03EF4909581959F
:102D90009F4F0895709561957F4F0895AA1BBB1BA7
:102DA00051E107C0AA1FBB1FA617B70710F0A61B4B
:102DB000B70B881F991F5A95A9F780959095BC016C
:102DC000CD010895EE0FFF1F0590F491E02D0994B9
:102DD000F894FFCF0100FF5E00BC00770100000007
:102DE0000015047503A2036204D303B103C50300F5
:102DF0000000002706FA05AE06D005F305E005D170
:102E000005000000009B067503AE0682040D0A0053
:102E100020202020202020202020202020202020B2
:102E20000063686172696F74206176616E6365002A
:102E300063686172696F7420726563756C650054B4
:102E40003D006E616E00696E66006F7666004469D3
:102E50007374616E6365206465206D65737572655A
:102E600020656E206465686F7273206465206C61F4
:102E700020706C61676520283320636D20612033EA
:102E8000206D290044697374616E6365206D6573FC
:102E900075726565203A00636D00417474656E74E7
:102EA000650054C2B02074726F70206861757465DB
:102EB00020706F757220666F6E6374696F6E6E65D9
:102EC0007200542054726F702068617574650063DD
:102ED000686172696F7420706F696E74204200734C
:102EE0006F6E2063686172696F7420617520706F06
:102EF000696E7420420063686172696F7420706F3C
:102F0000696E74204100736F6E2063686172696F2F
:102F10007420617520706F696E74204100412D52DC
:102F2000206E2000736F6E2063686172696F742079
:102F300071756920612066696E6920756E206379FC
:102F4000636C65006379636C652066696E69000077
:107E0000112484B714BE81FFF0D085E080938100F7
:107E100082E08093C00088E18093C10086E0809377
:107E2000C20080E18093C4008EE0C9D0259A86E02C
:107E300020E33CEF91E0309385002093840096BBD3
:107E4000B09BFECF1D9AA8958150A9F7CC24DD24C4
:107E500088248394B5E0AB2EA1E19A2EF3E0BF2EE7
:107E6000A2D0813461F49FD0082FAFD0023811F036
:107E7000013811F484E001C083E08DD089C08234E0
:107E800011F484E103C0853419F485E0A6D080C0E4
:107E9000853579F488D0E82EFF2485D0082F10E0AE
:107EA000102F00270E291F29000F111F8ED06801E7
:107EB0006FC0863521F484E090D080E0DECF843638
:107EC00009F040C070D06FD0082F6DD080E0C81688
:107ED00080E7D80618F4F601B7BEE895C0E0D1E017
:107EE00062D089930C17E1F7F0E0CF16F0E7DF06D8
:107EF00018F0F601B7BEE89568D007B600FCFDCFD4
:107F0000A601A0E0B1E02C9130E011968C91119780
:107F100090E0982F8827822B932B1296FA010C0160
:107F200087BEE89511244E5F5F4FF1E0A038BF0790
:107F300051F7F601A7BEE89507B600FCFDCF97BE46
:107F4000E89526C08437B1F42ED02DD0F82E2BD052
:107F50003CD0F601EF2C8F010F5F1F4F84911BD097
:107F6000EA94F801C1F70894C11CD11CFA94CF0C13
:107F7000D11C0EC0853739F428D08EE10CD085E9AC
:107F80000AD08FE07ACF813511F488E018D01DD067
:107F900080E101D065CF982F8091C00085FFFCCF94
:107FA0009093C60008958091C00087FFFCCF809118
:107FB000C00084FD01C0A8958091C6000895E0E648
:107FC000F0E098E1908380830895EDDF803219F02E
:107FD00088E0F5DFFFCF84E1DECF1F93182FE3DFCA
:107FE0001150E9F7F2DF1F91089580E0E8DFEE27F6
:047FF000FF270994CA
:027FFE00040479
:00000001FF
